{
  "contractName": "Backtracking",
  "abi": [
    {
      "constant": true,
      "inputs": [
        {
          "name": "productId",
          "type": "string"
        }
      ],
      "name": "getRecord",
      "outputs": [
        {
          "name": "",
          "type": "bytes32"
        },
        {
          "name": "",
          "type": "bytes32"
        }
      ],
      "payable": false,
      "stateMutability": "view",
      "type": "function"
    },
    {
      "constant": false,
      "inputs": [],
      "name": "kill",
      "outputs": [],
      "payable": false,
      "stateMutability": "nonpayable",
      "type": "function"
    },
    {
      "constant": false,
      "inputs": [
        {
          "name": "itemId",
          "type": "string"
        }
      ],
      "name": "track",
      "outputs": [
        {
          "name": "ownerAddresses",
          "type": "bytes32[128]"
        },
        {
          "name": "count",
          "type": "uint256"
        }
      ],
      "payable": false,
      "stateMutability": "nonpayable",
      "type": "function"
    },
    {
      "constant": false,
      "inputs": [],
      "name": "mortal",
      "outputs": [],
      "payable": false,
      "stateMutability": "nonpayable",
      "type": "function"
    },
    {
      "anonymous": false,
      "inputs": [
        {
          "indexed": false,
          "name": "from",
          "type": "bytes32"
        },
        {
          "indexed": false,
          "name": "to",
          "type": "bytes32"
        },
        {
          "indexed": false,
          "name": "trackingId",
          "type": "bytes32"
        },
        {
          "indexed": false,
          "name": "previousTrackingId",
          "type": "bytes32"
        }
      ],
      "name": "transferCompleted",
      "type": "event"
    }
  ],
  "bytecode": "0x606060405260405180807f726f6f74000000000000000000000000000000000000000000000000000000008152506004019050604051809103902060019060001916905561050c806100526000396000f300606060405260043610610062576000357c0100000000000000000000000000000000000000000000000000000000900463ffffffff16806311dd88451461006757806341c0e1b5146100ef578063b3f8675c14610104578063f1eae25c146101a4575b600080fd5b341561007257600080fd5b6100c2600480803590602001908201803590602001908080601f016020809104026020016040519081016040528093929190818152602001838380828437820191505050505050919050506101b9565b60405180836000191660001916815260200182600019166000191681526020019250505060405180910390f35b34156100fa57600080fd5b6101026102a8565b005b341561010f57600080fd5b61015f600480803590602001908201803590602001908080601f01602080910402602001604051908101604052809392919081815260200183838082843782019150505050505091905050610339565b6040518083608060200280838360005b8381101561018a57808201518184015260208101905061016f565b505050509050018281526020019250505060405180910390f35b34156101af57600080fd5b6101b761043d565b005b60008060006101c6610489565b6003856040518082805190602001908083835b6020831015156101fe57805182526020820191506020810190506020830392506101d9565b6001836020036101000a0380198251168184511680821785525050505050509050019150509081526020016040518091039020549150600260008360001916600019168152602001908152602001600020606060405190810160405290816000820154600019166000191681526020016001820154600019166000191681526020016002820154600019166000191681525050905080600001518160400151935093505050915091565b6000809054906101000a900473ffffffffffffffffffffffffffffffffffffffff1673ffffffffffffffffffffffffffffffffffffffff163373ffffffffffffffffffffffffffffffffffffffff161415610337576000809054906101000a900473ffffffffffffffffffffffffffffffffffffffff1673ffffffffffffffffffffffffffffffffffffffff16ff5b565b6103416104b4565b60008060008060008094506003876040518082805190602001908083835b602083101515610384578051825260208201915060208101905060208303925061035f565b6001836020036101000a03801982511681845116808217855250505050505090500191505090815260200160405180910390205492506103c261047f565b91505b8160001916836000191614151561042b576002600084600019166000191681526020019081526020016000209050806002015492508060000154868680600101975060808110151561041357fe5b602002019060001916908160001916815250506103c5565b84806001900395505050505050915091565b336000806101000a81548173ffffffffffffffffffffffffffffffffffffffff021916908373ffffffffffffffffffffffffffffffffffffffff160217905550565b6000600154905090565b6060604051908101604052806000801916815260200160008019168152602001600080191681525090565b611000604051908101604052806080905b60008019168152602001906001900390816104c557905050905600a165627a7a72305820f44f66d0c3ac534b20198359351253fe249c956a2744f22cbdfd581e393a1d140029",
  "source": "pragma solidity ^0.4.4;\n\nimport \"./Basic.sol\";\n\ncontract Backtracking is Basic {\n\n  function track(string itemId) returns (bytes32[128] ownerAddresses,uint count) {\n    uint test;\n    count=0;\n    bytes32 trackingId = items[itemId];\n    bytes32 root = getRoot();\n    while( trackingId != root )\n    {\n      ProofEntry p1= proofs[trackingId];\n      trackingId = p1.previousTrackingId;\n      ownerAddresses[count++]=p1.owner;\n    }\n    count--;\n  }\n\n}\n",
  "sourcePath": "/home/thegodfather/XChain/Xchain/contracts/Backtracking.sol",
  "compiler": {
    "name": "solc",
    "version": "0.4.18+commit.9cf6e910.Emscripten.clang"
  },
  "schemaVersion": "1.0.1",
  "updatedAt": "2017-12-26T06:01:44.949Z"
}