{
  "contractName": "Basic",
  "abi": [
    {
      "constant": true,
      "inputs": [
        {
          "name": "productId",
          "type": "string"
        }
      ],
      "name": "getRecord",
      "outputs": [
        {
          "name": "",
          "type": "bytes32"
        },
        {
          "name": "",
          "type": "bytes32"
        }
      ],
      "payable": false,
      "stateMutability": "view",
      "type": "function"
    },
    {
      "constant": false,
      "inputs": [],
      "name": "kill",
      "outputs": [],
      "payable": false,
      "stateMutability": "nonpayable",
      "type": "function"
    },
    {
      "constant": false,
      "inputs": [],
      "name": "mortal",
      "outputs": [],
      "payable": false,
      "stateMutability": "nonpayable",
      "type": "function"
    },
    {
      "inputs": [],
      "payable": false,
      "stateMutability": "nonpayable",
      "type": "constructor"
    },
    {
      "anonymous": false,
      "inputs": [
        {
          "indexed": false,
          "name": "from",
          "type": "bytes32"
        },
        {
          "indexed": false,
          "name": "to",
          "type": "bytes32"
        },
        {
          "indexed": false,
          "name": "trackingId",
          "type": "bytes32"
        },
        {
          "indexed": false,
          "name": "previousTrackingId",
          "type": "bytes32"
        }
      ],
      "name": "transferCompleted",
      "type": "event"
    },
    {
      "anonymous": false,
      "inputs": [
        {
          "indexed": false,
          "name": "info",
          "type": "string"
        },
        {
          "indexed": false,
          "name": "ownerHash",
          "type": "bytes32"
        },
        {
          "indexed": false,
          "name": "productId",
          "type": "string"
        }
      ],
      "name": "productAdded",
      "type": "event"
    }
  ],
  "bytecode": "0x606060405260405180807f726f6f740000000000000000000000000000000000000000000000000000000081525060040190506040518091039020600190600019169055341561004e57600080fd5b6103278061005d6000396000f300606060405260043610610057576000357c0100000000000000000000000000000000000000000000000000000000900463ffffffff16806311dd88451461005c57806341c0e1b5146100e4578063f1eae25c146100f9575b600080fd5b341561006757600080fd5b6100b7600480803590602001908201803590602001908080601f0160208091040260200160405190810160405280939291908181526020018383808284378201915050505050509190505061010e565b60405180836000191660001916815260200182600019166000191681526020019250505060405180910390f35b34156100ef57600080fd5b6100f76101fd565b005b341561010457600080fd5b61010c61028e565b005b600080600061011b6102d0565b6003856040518082805190602001908083835b602083101515610153578051825260208201915060208101905060208303925061012e565b6001836020036101000a0380198251168184511680821785525050505050509050019150509081526020016040518091039020549150600260008360001916600019168152602001908152602001600020606060405190810160405290816000820154600019166000191681526020016001820154600019166000191681526020016002820154600019166000191681525050905080600001518160400151935093505050915091565b6000809054906101000a900473ffffffffffffffffffffffffffffffffffffffff1673ffffffffffffffffffffffffffffffffffffffff163373ffffffffffffffffffffffffffffffffffffffff16141561028c576000809054906101000a900473ffffffffffffffffffffffffffffffffffffffff1673ffffffffffffffffffffffffffffffffffffffff16ff5b565b336000806101000a81548173ffffffffffffffffffffffffffffffffffffffff021916908373ffffffffffffffffffffffffffffffffffffffff160217905550565b60606040519081016040528060008019168152602001600080191681526020016000801916815250905600a165627a7a72305820eae7654835d16e78d7cea52cd5fa5c31984b541cd204bd9438b4b7fbba6a8d500029",
  "source": "pragma solidity ^0.4.4;\n\nimport \"./Mortal.sol\";\n\ncontract Basic is Mortal {\n  struct ProofEntry {\n    bytes32 owner;\n    bytes32 privateKey;\n    bytes32 previousTrackingId;\n  }\n  struct registerEntry{\n    bytes32 owner;\n    bytes32 privateKey;\n  }\n\n  bytes32 root = keccak256(\"root\");\n  //'root', variable of the type bytes32 stores\n  //hash of the word \"root\"\n\n  // map of trackingId to proofEntry\n  mapping (bytes32 => ProofEntry) proofs; // trackingId to ownerBlock\n  mapping (string => bytes32) items;  // productId to trackingId\n  mapping (bytes32 => registerEntry) register; // ownerHash to registerEntry\n\n  event transferCompleted(\n    bytes32 from,\n    bytes32 to,\n    bytes32 trackingId,\n    bytes32 previousTrackingId\n  );\n\n  event productAdded(\n    string info,\n    bytes32 ownerHash,\n    string productId\n  );\n\n\n  function Basic() {\n\n  }\n\n  // returns true if proof is stored\n  function hasProof(bytes32 trackingId) constant internal returns(bool) {\n    if(proofs[trackingId].owner != \"\")\n    {\n      return true;\n    }\n    else {\n      return false;\n    }\n  }\n\n  function getRoot() constant internal returns (bytes32) {\n    return root;\n  }\n\n  // returns true if entry exist\n  function hasEntry(string productId) constant internal returns(bool) {\n    bytes32 check = items[productId];\n    if(check == \"\")\n    {\n      return false;\n    }\n    else {\n      return true;\n    }\n  }\n\n  // returns the proof\n  function getProofInternal(bytes32 trackingId) constant internal returns(ProofEntry proof) {\n    if (hasProof(trackingId)) {\n      return proofs[trackingId];\n    }\n\n    // proof doesn't exist, throw and terminate transaction\n    throw;\n  }\n\n  function getProof(bytes32 trackingId) constant internal returns(bytes32 owner, bytes32 privateKey, bytes32 previousTrackingId) {\n    if (hasProof(trackingId)) {\n      ProofEntry memory pe = getProofInternal(trackingId);\n      owner = pe.owner;\n      privateKey = pe.privateKey;\n      previousTrackingId = pe.previousTrackingId;\n    }\n  }\n\n  function getRecord(string productId) constant returns(bytes32,bytes32) {\n    bytes32 trackingId = items[productId];\n    ProofEntry memory record = proofs[trackingId];\n    return (record.owner,record.previousTrackingId);\n  }\n\n\n  // returns the encrypted part of the proof\n  function getprivateKey(bytes32 trackingId) constant internal returns(bytes32 privateKey) {\n    if (hasProof(trackingId)) {\n      return getProofInternal(trackingId).privateKey;\n    }\n  }\n\n  function getOwner(bytes32 trackingId) constant internal returns(bytes32 owner) {\n    if (hasProof(trackingId)) {\n      return getProofInternal(trackingId).owner;\n    }\n  }\n\n  function getPreviousTrackingId(bytes32 trackingId) constant internal returns(bytes32 previousTrackingId) {\n    if (hasProof(trackingId)) {\n      return getProofInternal(trackingId).previousTrackingId;\n    }\n  }\n\n}\n",
  "sourcePath": "/home/thegodfather/XChain/Xchain/contracts/Basic.sol",
  "compiler": {
    "name": "solc",
    "version": "0.4.18+commit.9cf6e910.Emscripten.clang"
  },
  "schemaVersion": "1.0.1",
  "updatedAt": "2017-12-26T10:35:58.540Z"
}