{
  "contractName": "encrypt",
  "abi": [
    {
      "constant": true,
      "inputs": [
        {
          "name": "productId",
          "type": "string"
        }
      ],
      "name": "getRecord",
      "outputs": [
        {
          "name": "",
          "type": "bytes32"
        },
        {
          "name": "",
          "type": "bytes32"
        }
      ],
      "payable": false,
      "stateMutability": "view",
      "type": "function"
    },
    {
      "constant": false,
      "inputs": [],
      "name": "kill",
      "outputs": [],
      "payable": false,
      "stateMutability": "nonpayable",
      "type": "function"
    },
    {
      "constant": false,
      "inputs": [
        {
          "name": "password",
          "type": "string"
        }
      ],
      "name": "registerUser",
      "outputs": [],
      "payable": false,
      "stateMutability": "nonpayable",
      "type": "function"
    },
    {
      "constant": true,
      "inputs": [
        {
          "name": "password",
          "type": "string"
        }
      ],
      "name": "fetchOwnerHash",
      "outputs": [
        {
          "name": "",
          "type": "bytes32"
        }
      ],
      "payable": false,
      "stateMutability": "pure",
      "type": "function"
    },
    {
      "constant": false,
      "inputs": [
        {
          "name": "password",
          "type": "string"
        },
        {
          "name": "productId",
          "type": "string"
        }
      ],
      "name": "addProduct",
      "outputs": [],
      "payable": false,
      "stateMutability": "nonpayable",
      "type": "function"
    },
    {
      "constant": false,
      "inputs": [],
      "name": "mortal",
      "outputs": [],
      "payable": false,
      "stateMutability": "nonpayable",
      "type": "function"
    },
    {
      "anonymous": false,
      "inputs": [
        {
          "indexed": false,
          "name": "from",
          "type": "bytes32"
        },
        {
          "indexed": false,
          "name": "to",
          "type": "bytes32"
        },
        {
          "indexed": false,
          "name": "trackingId",
          "type": "bytes32"
        },
        {
          "indexed": false,
          "name": "previousTrackingId",
          "type": "bytes32"
        }
      ],
      "name": "transferCompleted",
      "type": "event"
    }
  ],
  "bytecode": "0x606060405260405180807f726f6f740000000000000000000000000000000000000000000000000000000081525060040190506040518091039020600190600019169055610c0e806100526000396000f300606060405260043610610078576000357c0100000000000000000000000000000000000000000000000000000000900463ffffffff16806311dd88451461007d57806341c0e1b514610105578063704f1b941461011a578063bea333de14610177578063ca2efb55146101f0578063f1eae25c14610290575b600080fd5b341561008857600080fd5b6100d8600480803590602001908201803590602001908080601f016020809104026020016040519081016040528093929190818152602001838380828437820191505050505050919050506102a5565b60405180836000191660001916815260200182600019166000191681526020019250505060405180910390f35b341561011057600080fd5b610118610394565b005b341561012557600080fd5b610175600480803590602001908201803590602001908080601f01602080910402602001604051908101604052809392919081815260200183838082843782019150505050505091905050610425565b005b341561018257600080fd5b6101d2600480803590602001908201803590602001908080601f016020809104026020016040519081016040528093929190818152602001838380828437820191505050505050919050506105bc565b60405180826000191660001916815260200191505060405180910390f35b34156101fb57600080fd5b61028e600480803590602001908201803590602001908080601f0160208091040260200160405190810160405280939291908181526020018383808284378201915050505050509190803590602001908201803590602001908080601f01602080910402602001604051908101604052809392919081815260200183838082843782019150505050505091905050610697565b005b341561029b57600080fd5b6102a3610960565b005b60008060006102b2610b8f565b6003856040518082805190602001908083835b6020831015156102ea57805182526020820191506020810190506020830392506102c5565b6001836020036101000a0380198251168184511680821785525050505050509050019150509081526020016040518091039020549150600260008360001916600019168152602001908152602001600020606060405190810160405290816000820154600019166000191681526020016001820154600019166000191681526020016002820154600019166000191681525050905080600001518160400151935093505050915091565b6000809054906101000a900473ffffffffffffffffffffffffffffffffffffffff1673ffffffffffffffffffffffffffffffffffffffff163373ffffffffffffffffffffffffffffffffffffffff161415610423576000809054906101000a900473ffffffffffffffffffffffffffffffffffffffff1673ffffffffffffffffffffffffffffffffffffffff16ff5b565b600080610493836040518082805190602001908083835b602083101515610461578051825260208201915060208101905060208303925061043c565b6001836020036101000a03801982511681845116808217855250505050505090500191505060405180910390206109a2565b6040518082805190602001908083835b6020831015156104c857805182526020820191506020810190506020830392506104a3565b6001836020036101000a03801982511681845116808217855250505050505090500191505060405180910390209150826040518082805190602001908083835b60208310151561052d5780518252602082019150602081019050602083039250610508565b6001836020036101000a0380198251168184511680821785525050505050509050019150506040518091039020905060408051908101604052808360001916815260200182600019168152506004600084600019166000191681526020019081526020016000206000820151816000019060001916905560208201518160010190600019169055905050505050565b60008061062a836040518082805190602001908083835b6020831015156105f857805182526020820191506020810190506020830392506105d3565b6001836020036101000a03801982511681845116808217855250505050505090500191505060405180910390206109a2565b6040518082805190602001908083835b60208310151561065f578051825260208201915060208101905060208303925061063a565b6001836020036101000a0380198251168184511680821785525050505050509050019150506040518091039020905080915050919050565b600080600080610708866040518082805190602001908083835b6020831015156106d657805182526020820191506020810190506020830392506106b1565b6001836020036101000a03801982511681845116808217855250505050505090500191505060405180910390206109a2565b6040518082805190602001908083835b60208310151561073d5780518252602082019150602081019050602083039250610718565b6001836020036101000a03801982511681845116808217855250505050505090500191505060405180910390209350856040518082805190602001908083835b6020831015156107a2578051825260208201915060208101905060208303925061077d565b6001836020036101000a0380198251168184511680821785525050505050509050019150506040518091039020925060405180807f726f6f7400000000000000000000000000000000000000000000000000000000815250600401905060405180910390209150846040518082805190602001908083835b60208310151561083f578051825260208201915060208101905060208303925061081a565b6001836020036101000a0380198251168184511680821785525050505050509050019150506040518091039020905060606040519081016040528085600019168152602001846000191681526020018360001916815250600260008360001916600019168152602001908152602001600020600082015181600001906000191690556020820151816001019060001916905560408201518160020190600019169055905050806003866040518082805190602001908083835b60208310151561091d57805182526020820191506020810190506020830392506108f8565b6001836020036101000a03801982511681845116808217855250505050505090500191505090815260200160405180910390208160001916905550505050505050565b336000806101000a81548173ffffffffffffffffffffffffffffffffffffffff021916908373ffffffffffffffffffffffffffffffffffffffff160217905550565b6109aa610bba565b6109b2610bce565b60008060006109bf610bce565b60206040518059106109ce5750595b9080825280601f01601f1916602001820160405250945060009350600092505b6020831015610aac578260080260020a876001900402600102915060007f010000000000000000000000000000000000000000000000000000000000000002827effffffffffffffffffffffffffffffffffffffffffffffffffffffffffffff1916141515610a9f57818585815181101515610a6657fe5b9060200101907effffffffffffffffffffffffffffffffffffffffffffffffffffffffffffff1916908160001a90535083806001019450505b82806001019350506109ee565b83604051805910610aba5750595b9080825280601f01601f19166020018201604052509050600092505b83831015610b82578483815181101515610aec57fe5b9060200101517f010000000000000000000000000000000000000000000000000000000000000090047f0100000000000000000000000000000000000000000000000000000000000000028184815181101515610b4557fe5b9060200101907effffffffffffffffffffffffffffffffffffffffffffffffffffffffffffff1916908160001a9053508280600101935050610ad6565b8095505050505050919050565b6060604051908101604052806000801916815260200160008019168152602001600080191681525090565b602060405190810160405280600081525090565b6020604051908101604052806000815250905600a165627a7a72305820461546dab5be984b4322712f5630fa06bd578985f9f2b47c9e312dd926a5d7af0029",
  "source": "pragma solidity ^0.4.4;\n\nimport \"./Basic.sol\";\n\ncontract encrypt is Basic {\n\n    function addProduct(string password, string productId) public{\n\n        bytes32 ownerHash = keccak256(bytes32ToString(keccak256(password)));\n        bytes32 privateKeyHash =  keccak256(password);\n        bytes32 previousTrackingId = keccak256(\"root\");\n        bytes32 trackingId = keccak256(productId);\n        proofs[trackingId] = ProofEntry(ownerHash, privateKeyHash, previousTrackingId);\n        items[productId] = trackingId;\n\n        // return (ownerHash, proofs[trackingId].owner); \n    }\n    function registerUser(string password) public {\n        bytes32 owner = keccak256(bytes32ToString(keccak256(password)));\n        bytes32 privateKey = keccak256(password);\n        register[owner] = registerEntry(owner , privateKey);\n    }\n\n    function fetchOwnerHash(string password) public pure returns (bytes32){\n        bytes32 owner = keccak256(bytes32ToString(keccak256(password)));\n        return owner;\n    }\n\n\n\n\n    function bytes32ToString(bytes32 x) pure internal returns (string) {\n    bytes memory bytesString = new bytes(32);\n    uint charCount = 0;\n    for (uint j = 0; j < 32; j++) {\n        byte char = byte(bytes32(uint(x) * 2 ** (8 * j)));\n        if (char != 0) {\n            bytesString[charCount] = char;\n            charCount++;\n        }\n    }\n    bytes memory bytesStringTrimmed = new bytes(charCount);\n    for (j = 0; j < charCount; j++) {\n        bytesStringTrimmed[j] = bytesString[j];\n    }\n    return string(bytesStringTrimmed);\n}\n\n}\n",
  "sourcePath": "/home/thegodfather/XChain/Xchain/contracts/Encrypted.sol",
  "compiler": {
    "name": "solc",
    "version": "0.4.18+commit.9cf6e910.Emscripten.clang"
  },
  "schemaVersion": "1.0.1",
  "updatedAt": "2017-12-26T05:47:07.717Z"
}