{
  "contractName": "Encrypted",
  "abi": [
    {
      "constant": true,
      "inputs": [
        {
          "name": "productId",
          "type": "string"
        }
      ],
      "name": "getRecord",
      "outputs": [
        {
          "name": "",
          "type": "bytes32"
        },
        {
          "name": "",
          "type": "bytes32"
        }
      ],
      "payable": false,
      "stateMutability": "view",
      "type": "function"
    },
    {
      "constant": false,
      "inputs": [],
      "name": "kill",
      "outputs": [],
      "payable": false,
      "stateMutability": "nonpayable",
      "type": "function"
    },
    {
      "constant": false,
      "inputs": [
        {
          "name": "password",
          "type": "string"
        }
      ],
      "name": "registerUser",
      "outputs": [],
      "payable": false,
      "stateMutability": "nonpayable",
      "type": "function"
    },
    {
      "constant": true,
      "inputs": [
        {
          "name": "password",
          "type": "string"
        }
      ],
      "name": "fetchOwnerHash",
      "outputs": [
        {
          "name": "",
          "type": "bytes32"
        }
      ],
      "payable": false,
      "stateMutability": "pure",
      "type": "function"
    },
    {
      "constant": false,
      "inputs": [
        {
          "name": "password",
          "type": "string"
        },
        {
          "name": "productId",
          "type": "string"
        }
      ],
      "name": "addProduct",
      "outputs": [
        {
          "name": "",
          "type": "bool"
        }
      ],
      "payable": false,
      "stateMutability": "nonpayable",
      "type": "function"
    },
    {
      "constant": false,
      "inputs": [],
      "name": "mortal",
      "outputs": [],
      "payable": false,
      "stateMutability": "nonpayable",
      "type": "function"
    },
    {
      "anonymous": false,
      "inputs": [
        {
          "indexed": false,
          "name": "from",
          "type": "bytes32"
        },
        {
          "indexed": false,
          "name": "to",
          "type": "bytes32"
        },
        {
          "indexed": false,
          "name": "trackingId",
          "type": "bytes32"
        },
        {
          "indexed": false,
          "name": "previousTrackingId",
          "type": "bytes32"
        }
      ],
      "name": "transferCompleted",
      "type": "event"
    },
    {
      "anonymous": false,
      "inputs": [
        {
          "indexed": false,
          "name": "info",
          "type": "string"
        },
        {
          "indexed": false,
          "name": "ownerHash",
          "type": "bytes32"
        },
        {
          "indexed": false,
          "name": "productId",
          "type": "string"
        }
      ],
      "name": "productAdded",
      "type": "event"
    }
  ],
  "bytecode": "0x606060405260405180807f726f6f740000000000000000000000000000000000000000000000000000000081525060040190506040518091039020600190600019169055610f4a806100526000396000f300606060405260043610610078576000357c0100000000000000000000000000000000000000000000000000000000900463ffffffff16806311dd88451461007d57806341c0e1b514610105578063704f1b941461011a578063bea333de14610177578063ca2efb55146101f0578063f1eae25c146102a8575b600080fd5b341561008857600080fd5b6100d8600480803590602001908201803590602001908080601f016020809104026020016040519081016040528093929190818152602001838380828437820191505050505050919050506102bd565b60405180836000191660001916815260200182600019166000191681526020019250505060405180910390f35b341561011057600080fd5b6101186103ac565b005b341561012557600080fd5b610175600480803590602001908201803590602001908080601f0160208091040260200160405190810160405280939291908181526020018383808284378201915050505050509190505061043d565b005b341561018257600080fd5b6101d2600480803590602001908201803590602001908080601f016020809104026020016040519081016040528093929190818152602001838380828437820191505050505050919050506106d2565b60405180826000191660001916815260200191505060405180910390f35b34156101fb57600080fd5b61028e600480803590602001908201803590602001908080601f0160208091040260200160405190810160405280939291908181526020018383808284378201915050505050509190803590602001908201803590602001908080601f016020809104026020016040519081016040528093929190818152602001838380828437820191505050505050919050506107ad565b604051808215151515815260200191505060405180910390f35b34156102b357600080fd5b6102bb610c0a565b005b60008060006102ca610ecb565b6003856040518082805190602001908083835b60208310151561030257805182526020820191506020810190506020830392506102dd565b6001836020036101000a0380198251168184511680821785525050505050509050019150509081526020016040518091039020549150600260008360001916600019168152602001908152602001600020606060405190810160405290816000820154600019166000191681526020016001820154600019166000191681526020016002820154600019166000191681525050905080600001518160400151935093505050915091565b6000809054906101000a900473ffffffffffffffffffffffffffffffffffffffff1673ffffffffffffffffffffffffffffffffffffffff163373ffffffffffffffffffffffffffffffffffffffff16141561043b576000809054906101000a900473ffffffffffffffffffffffffffffffffffffffff1673ffffffffffffffffffffffffffffffffffffffff16ff5b565b60008060006104ad846040518082805190602001908083835b60208310151561047b5780518252602082019150602081019050602083039250610456565b6001836020036101000a0380198251168184511680821785525050505050509050019150506040518091039020610c4c565b6040518082805190602001908083835b6020831015156104e257805182526020820191506020810190506020830392506104bd565b6001836020036101000a038019825116818451168082178552505050505050905001915050604051809103902092506000600460008560001916600019168152602001908152602001600020600001546000191614156106cc576105a7846040518082805190602001908083835b6020831015156105755780518252602082019150602081019050602083039250610550565b6001836020036101000a0380198251168184511680821785525050505050509050019150506040518091039020610c4c565b6040518082805190602001908083835b6020831015156105dc57805182526020820191506020810190506020830392506105b7565b6001836020036101000a03801982511681845116808217855250505050505090500191505060405180910390209150836040518082805190602001908083835b602083101515610641578051825260208201915060208101905060208303925061061c565b6001836020036101000a03801982511681845116808217855250505050505090500191505060405180910390209050604080519081016040528083600019168152602001826000191681525060046000846000191660001916815260200190815260200160002060008201518160000190600019169055602082015181600101906000191690559050505b50505050565b600080610740836040518082805190602001908083835b60208310151561070e57805182526020820191506020810190506020830392506106e9565b6001836020036101000a0380198251168184511680821785525050505050509050019150506040518091039020610c4c565b6040518082805190602001908083835b6020831015156107755780518252602082019150602081019050602083039250610750565b6001836020036101000a0380198251168184511680821785525050505050509050019150506040518091039020905080915050919050565b60008060008060006107be86610e39565b156107cc5760009450610c00565b610837876040518082805190602001908083835b60208310151561080557805182526020820191506020810190506020830392506107e0565b6001836020036101000a0380198251168184511680821785525050505050509050019150506040518091039020610c4c565b6040518082805190602001908083835b60208310151561086c5780518252602082019150602081019050602083039250610847565b6001836020036101000a03801982511681845116808217855250505050505090500191505060405180910390209350866040518082805190602001908083835b6020831015156108d157805182526020820191506020810190506020830392506108ac565b6001836020036101000a0380198251168184511680821785525050505050509050019150506040518091039020925060405180807f726f6f7400000000000000000000000000000000000000000000000000000000815250600401905060405180910390209150856040518082805190602001908083835b60208310151561096e5780518252602082019150602081019050602083039250610949565b6001836020036101000a038019825116818451168082178552505050505050905001915050604051809103902090506060604051908101604052808560001916815260200184600019168152602001836000191681525060026000836000191660001916815260200190815260200160002060008201518160000190600019169055602082015181600101906000191690556040820151816002019060001916905590505060408051908101604052808560001916815260200184600019168152506004600086600019166000191681526020019081526020016000206000820151816000019060001916905560208201518160010190600019169055905050806003876040518082805190602001908083835b602083101515610aa75780518252602082019150602081019050602083039250610a82565b6001836020036101000a038019825116818451168082178552505050505050905001915050908152602001604051809103902081600019169055507fd6921cecd4e3e8a01118186c55851034ccf594b110c12dac4fcb9a6246eee1178785886040518080602001846000191660001916815260200180602001838103835286818151815260200191508051906020019080838360005b83811015610b58578082015181840152602081019050610b3d565b50505050905090810190601f168015610b855780820380516001836020036101000a031916815260200191505b50838103825284818151815260200191508051906020019080838360005b83811015610bbe578082015181840152602081019050610ba3565b50505050905090810190601f168015610beb5780820380516001836020036101000a031916815260200191505b509550505050505060405180910390a1600194505b5050505092915050565b336000806101000a81548173ffffffffffffffffffffffffffffffffffffffff021916908373ffffffffffffffffffffffffffffffffffffffff160217905550565b610c54610ef6565b610c5c610f0a565b6000806000610c69610f0a565b6020604051805910610c785750595b9080825280601f01601f1916602001820160405250945060009350600092505b6020831015610d56578260080260020a876001900402600102915060007f010000000000000000000000000000000000000000000000000000000000000002827effffffffffffffffffffffffffffffffffffffffffffffffffffffffffffff1916141515610d4957818585815181101515610d1057fe5b9060200101907effffffffffffffffffffffffffffffffffffffffffffffffffffffffffffff1916908160001a90535083806001019450505b8280600101935050610c98565b83604051805910610d645750595b9080825280601f01601f19166020018201604052509050600092505b83831015610e2c578483815181101515610d9657fe5b9060200101517f010000000000000000000000000000000000000000000000000000000000000090047f0100000000000000000000000000000000000000000000000000000000000000028184815181101515610def57fe5b9060200101907effffffffffffffffffffffffffffffffffffffffffffffffffffffffffffff1916908160001a9053508280600101935050610d80565b8095505050505050919050565b6000806003836040518082805190602001908083835b602083101515610e745780518252602082019150602081019050602083039250610e4f565b6001836020036101000a0380198251168184511680821785525050505050509050019150509081526020016040518091039020549050600081600019161415610ec05760009150610ec5565b600191505b50919050565b6060604051908101604052806000801916815260200160008019168152602001600080191681525090565b602060405190810160405280600081525090565b6020604051908101604052806000815250905600a165627a7a72305820de2fa01186c1161504dd493dfeb87dac0b50f74a8f8c5db4b757ff323ac84e900029",
  "source": "pragma solidity ^0.4.4;\n\nimport \"./Basic.sol\";\n\ncontract Encrypted is Basic {\n\n    function addProduct(string password, string productId) public returns(bool){\n        if(hasEntry(productId))\n          return false;\n        else {\n        bytes32 owner = keccak256(bytes32ToString(keccak256(password)));\n        bytes32 privateKey =  keccak256(password);\n        bytes32 previousTrackingId = keccak256(\"root\");\n        bytes32 trackingId = keccak256(productId);\n        proofs[trackingId] = ProofEntry(owner, privateKey, previousTrackingId);\n        register[owner] = registerEntry(owner , privateKey);\n        items[productId] = trackingId;\n        productAdded(password,owner,productId);\n        return true;\n      }\n    }\n    function registerUser(string password) public {\n        bytes32 newOwner = keccak256(bytes32ToString(keccak256(password)));\n        if(register[newOwner].owner==\"\")\n        {\n        bytes32 owner = keccak256(bytes32ToString(keccak256(password)));\n        bytes32 privateKey = keccak256(password);\n        register[owner] = registerEntry(owner , privateKey);\n        }\n    }\n\n    function fetchOwnerHash(string password) public pure returns (bytes32){\n        bytes32 owner = keccak256(bytes32ToString(keccak256(password)));\n        return owner;\n    }\n\n\n\n\n    function bytes32ToString(bytes32 x) pure internal returns (string) {\n    bytes memory bytesString = new bytes(32);\n    uint charCount = 0;\n    for (uint j = 0; j < 32; j++) {\n        byte char = byte(bytes32(uint(x) * 2 ** (8 * j)));\n        if (char != 0) {\n            bytesString[charCount] = char;\n            charCount++;\n        }\n    }\n    bytes memory bytesStringTrimmed = new bytes(charCount);\n    for (j = 0; j < charCount; j++) {\n        bytesStringTrimmed[j] = bytesString[j];\n    }\n    return string(bytesStringTrimmed);\n}\n\n}\n",
  "sourcePath": "/home/thegodfather/XChain/Xchain/contracts/Encrypted.sol",
  "compiler": {
    "name": "solc",
    "version": "0.4.18+commit.9cf6e910.Emscripten.clang"
  },
  "schemaVersion": "1.0.1",
  "updatedAt": "2017-12-26T10:35:58.561Z"
}