{
  "contractName": "Login",
  "abi": [
    {
      "constant": true,
      "inputs": [
        {
          "name": "productId",
          "type": "string"
        }
      ],
      "name": "getRecord",
      "outputs": [
        {
          "name": "",
          "type": "bytes32"
        },
        {
          "name": "",
          "type": "bytes32"
        }
      ],
      "payable": false,
      "stateMutability": "view",
      "type": "function"
    },
    {
      "constant": true,
      "inputs": [
        {
          "name": "productId",
          "type": "string"
        }
      ],
      "name": "getTrackingId",
      "outputs": [
        {
          "name": "",
          "type": "bytes32"
        }
      ],
      "payable": false,
      "stateMutability": "view",
      "type": "function"
    },
    {
      "constant": false,
      "inputs": [],
      "name": "kill",
      "outputs": [],
      "payable": false,
      "stateMutability": "nonpayable",
      "type": "function"
    },
    {
      "constant": false,
      "inputs": [
        {
          "name": "info",
          "type": "string"
        },
        {
          "name": "productId",
          "type": "string"
        }
      ],
      "name": "verify",
      "outputs": [
        {
          "name": "",
          "type": "bool"
        }
      ],
      "payable": false,
      "stateMutability": "nonpayable",
      "type": "function"
    },
    {
      "constant": false,
      "inputs": [],
      "name": "mortal",
      "outputs": [],
      "payable": false,
      "stateMutability": "nonpayable",
      "type": "function"
    },
    {
      "anonymous": false,
      "inputs": [
        {
          "indexed": false,
          "name": "from",
          "type": "bytes32"
        },
        {
          "indexed": false,
          "name": "to",
          "type": "bytes32"
        },
        {
          "indexed": false,
          "name": "trackingId",
          "type": "bytes32"
        },
        {
          "indexed": false,
          "name": "previousTrackingId",
          "type": "bytes32"
        }
      ],
      "name": "transferCompleted",
      "type": "event"
    },
    {
      "anonymous": false,
      "inputs": [
        {
          "indexed": false,
          "name": "info",
          "type": "string"
        },
        {
          "indexed": false,
          "name": "ownerHash",
          "type": "bytes32"
        },
        {
          "indexed": false,
          "name": "productId",
          "type": "string"
        }
      ],
      "name": "productAdded",
      "type": "event"
    }
  ],
  "bytecode": "0x606060405260405180807f726f6f740000000000000000000000000000000000000000000000000000000081525060040190506040518091039020600190600019169055610619806100526000396000f30060606040526004361061006d576000357c0100000000000000000000000000000000000000000000000000000000900463ffffffff16806311dd8845146100725780632eccd43a146100fa57806341c0e1b5146101735780639deb17f514610188578063f1eae25c14610240575b600080fd5b341561007d57600080fd5b6100cd600480803590602001908201803590602001908080601f01602080910402602001604051908101604052809392919081815260200183838082843782019150505050505091905050610255565b60405180836000191660001916815260200182600019166000191681526020019250505060405180910390f35b341561010557600080fd5b610155600480803590602001908201803590602001908080601f01602080910402602001604051908101604052809392919081815260200183838082843782019150505050505091905050610344565b60405180826000191660001916815260200191505060405180910390f35b341561017e57600080fd5b6101866103c6565b005b341561019357600080fd5b610226600480803590602001908201803590602001908080601f0160208091040260200160405190810160405280939291908181526020018383808284378201915050505050509190803590602001908201803590602001908080601f01602080910402602001604051908101604052809392919081815260200183838082843782019150505050505091905050610457565b604051808215151515815260200191505060405180910390f35b341561024b57600080fd5b610253610580565b005b60008060006102626105c2565b6003856040518082805190602001908083835b60208310151561029a5780518252602082019150602081019050602083039250610275565b6001836020036101000a0380198251168184511680821785525050505050509050019150509081526020016040518091039020549150600260008360001916600019168152602001908152602001600020606060405190810160405290816000820154600019166000191681526020016001820154600019166000191681526020016002820154600019166000191681525050905080600001518160400151935093505050915091565b60006003826040518082805190602001908083835b60208310151561037e5780518252602082019150602081019050602083039250610359565b6001836020036101000a038019825116818451168082178552505050505050905001915050908152602001604051809103902054600581600019169055506005549050919050565b6000809054906101000a900473ffffffffffffffffffffffffffffffffffffffff1673ffffffffffffffffffffffffffffffffffffffff163373ffffffffffffffffffffffffffffffffffffffff161415610455576000809054906101000a900473ffffffffffffffffffffffffffffffffffffffff1673ffffffffffffffffffffffffffffffffffffffff16ff5b565b60008060006003846040518082805190602001908083835b602083101515610494578051825260208201915060208101905060208303925061046f565b6001836020036101000a0380198251168184511680821785525050505050509050019150509081526020016040518091039020546005816000191690555060026000600554600019166000191681526020019081526020016000209150846040518082805190602001908083835b6020831015156105275780518252602082019150602081019050602083039250610502565b6001836020036101000a03801982511681845116808217855250505050505090500191505060405180910390209050816001015460001916816000191614156105735760019250610578565b600092505b505092915050565b336000806101000a81548173ffffffffffffffffffffffffffffffffffffffff021916908373ffffffffffffffffffffffffffffffffffffffff160217905550565b60606040519081016040528060008019168152602001600080191681526020016000801916815250905600a165627a7a723058200125fd8d8e4d3b5b8a94302be7ef0a6436beb39ed326103535475bc28a1f2ab40029",
  "source": "pragma solidity ^0.4.4;\n\nimport \"./Basic.sol\";\n\ncontract Login is Basic{\n\n  bytes32 trackingId;\n\n  function verify(string info,string productId) returns (bool){\n    trackingId = items[productId];\n    ProofEntry acOwner = proofs[trackingId];\n    bytes32 newKey = keccak256(info);\n    if(newKey == acOwner.privateKey)\n    {\n      return true;\n    }\n    else {\n      return false;\n    }\n  }\n\n  function getTrackingId(string productId) constant returns (bytes32){\n  trackingId = items[productId];\n  return trackingId;\n  }\n\n}\n",
  "sourcePath": "/home/thegodfather/XChain/Xchain/contracts/Login.sol",
  "compiler": {
    "name": "solc",
    "version": "0.4.18+commit.9cf6e910.Emscripten.clang"
  },
  "schemaVersion": "1.0.1",
  "updatedAt": "2017-12-26T10:16:28.327Z"
}