{
  "contractName": "Login",
  "abi": [
    {
      "constant": true,
      "inputs": [
        {
          "name": "productId",
          "type": "string"
        }
      ],
      "name": "getRecord",
      "outputs": [
        {
          "name": "",
          "type": "bytes32"
        },
        {
          "name": "",
          "type": "bytes32"
        }
      ],
      "payable": false,
      "stateMutability": "view",
      "type": "function"
    },
    {
      "constant": true,
      "inputs": [],
      "name": "getTrackingId",
      "outputs": [
        {
          "name": "",
          "type": "bytes32"
        }
      ],
      "payable": false,
      "stateMutability": "view",
      "type": "function"
    },
    {
      "constant": false,
      "inputs": [],
      "name": "kill",
      "outputs": [],
      "payable": false,
      "stateMutability": "nonpayable",
      "type": "function"
    },
    {
      "constant": false,
      "inputs": [
        {
          "name": "info",
          "type": "string"
        },
        {
          "name": "productId",
          "type": "string"
        }
      ],
      "name": "verify",
      "outputs": [
        {
          "name": "",
          "type": "bool"
        }
      ],
      "payable": false,
      "stateMutability": "nonpayable",
      "type": "function"
    },
    {
      "constant": false,
      "inputs": [],
      "name": "mortal",
      "outputs": [],
      "payable": false,
      "stateMutability": "nonpayable",
      "type": "function"
    },
    {
      "anonymous": false,
      "inputs": [
        {
          "indexed": false,
          "name": "from",
          "type": "bytes32"
        },
        {
          "indexed": false,
          "name": "to",
          "type": "bytes32"
        },
        {
          "indexed": false,
          "name": "trackingId",
          "type": "bytes32"
        },
        {
          "indexed": false,
          "name": "previousTrackingId",
          "type": "bytes32"
        }
      ],
      "name": "transferCompleted",
      "type": "event"
    }
  ],
  "bytecode": "0x606060405260405180807f726f6f740000000000000000000000000000000000000000000000000000000081525060040190506040518091039020600190600019169055610559806100526000396000f30060606040526004361061006d576000357c0100000000000000000000000000000000000000000000000000000000900463ffffffff16806311dd8845146100725780631a2973ed146100fa57806341c0e1b51461012b5780639deb17f514610140578063f1eae25c146101f8575b600080fd5b341561007d57600080fd5b6100cd600480803590602001908201803590602001908080601f0160208091040260200160405190810160405280939291908181526020018383808284378201915050505050509190505061020d565b60405180836000191660001916815260200182600019166000191681526020019250505060405180910390f35b341561010557600080fd5b61010d6102fc565b60405180826000191660001916815260200191505060405180910390f35b341561013657600080fd5b61013e610306565b005b341561014b57600080fd5b6101de600480803590602001908201803590602001908080601f0160208091040260200160405190810160405280939291908181526020018383808284378201915050505050509190803590602001908201803590602001908080601f01602080910402602001604051908101604052809392919081815260200183838082843782019150505050505091905050610397565b604051808215151515815260200191505060405180910390f35b341561020357600080fd5b61020b6104c0565b005b600080600061021a610502565b6003856040518082805190602001908083835b602083101515610252578051825260208201915060208101905060208303925061022d565b6001836020036101000a0380198251168184511680821785525050505050509050019150509081526020016040518091039020549150600260008360001916600019168152602001908152602001600020606060405190810160405290816000820154600019166000191681526020016001820154600019166000191681526020016002820154600019166000191681525050905080600001518160400151935093505050915091565b6000600554905090565b6000809054906101000a900473ffffffffffffffffffffffffffffffffffffffff1673ffffffffffffffffffffffffffffffffffffffff163373ffffffffffffffffffffffffffffffffffffffff161415610395576000809054906101000a900473ffffffffffffffffffffffffffffffffffffffff1673ffffffffffffffffffffffffffffffffffffffff16ff5b565b60008060006003846040518082805190602001908083835b6020831015156103d457805182526020820191506020810190506020830392506103af565b6001836020036101000a0380198251168184511680821785525050505050509050019150509081526020016040518091039020546005816000191690555060026000600554600019166000191681526020019081526020016000209150846040518082805190602001908083835b6020831015156104675780518252602082019150602081019050602083039250610442565b6001836020036101000a03801982511681845116808217855250505050505090500191505060405180910390209050816001015460001916816000191614156104b357600192506104b8565b600092505b505092915050565b336000806101000a81548173ffffffffffffffffffffffffffffffffffffffff021916908373ffffffffffffffffffffffffffffffffffffffff160217905550565b60606040519081016040528060008019168152602001600080191681526020016000801916815250905600a165627a7a72305820c186f550fa869686fe5f2a20657ec552ef94e8cf437accd83f1aa5d5a16f399a0029",
  "source": "pragma solidity ^0.4.4;\n\nimport \"./Basic.sol\";\n\ncontract Login is Basic{\n\n  bytes32 trackingId;\n\n  function verify(string info,string productId) returns (bool){\n    trackingId = items[productId];\n    ProofEntry acOwner = proofs[trackingId];\n    bytes32 newKey = keccak256(info);\n    if(newKey == acOwner.privateKey)\n    {\n      return true;\n    }\n    else {\n      return false;\n    }\n  }\n\n  function getTrackingId() constant returns (bytes32){\n  return trackingId;\n  }\n\n}\n",
  "sourcePath": "/home/thegodfather/XChain/Xchain/contracts/Login.sol",
  "compiler": {
    "name": "solc",
    "version": "0.4.18+commit.9cf6e910.Emscripten.clang"
  },
  "schemaVersion": "1.0.1",
  "updatedAt": "2017-12-26T06:01:44.966Z"
}