{
  "contractName": "Main",
  "abi": [
    {
      "constant": true,
      "inputs": [
        {
          "name": "productId",
          "type": "string"
        }
      ],
      "name": "getRecord",
      "outputs": [
        {
          "name": "",
          "type": "bytes32"
        },
        {
          "name": "",
          "type": "bytes32"
        }
      ],
      "payable": false,
      "stateMutability": "view",
      "type": "function"
    },
    {
      "constant": true,
      "inputs": [],
      "name": "getTrackingId",
      "outputs": [
        {
          "name": "",
          "type": "bytes32"
        }
      ],
      "payable": false,
      "stateMutability": "view",
      "type": "function"
    },
    {
      "constant": false,
      "inputs": [
        {
          "name": "owner",
          "type": "bytes32"
        },
        {
          "name": "previousTrackingId",
          "type": "bytes32"
        },
        {
          "name": "newOwner",
          "type": "bytes32"
        },
        {
          "name": "productId",
          "type": "string"
        }
      ],
      "name": "transferProof",
      "outputs": [
        {
          "name": "success",
          "type": "bool"
        }
      ],
      "payable": false,
      "stateMutability": "nonpayable",
      "type": "function"
    },
    {
      "constant": false,
      "inputs": [
        {
          "name": "newOwner",
          "type": "bytes32"
        },
        {
          "name": "info",
          "type": "string"
        },
        {
          "name": "productId",
          "type": "string"
        }
      ],
      "name": "transfer",
      "outputs": [],
      "payable": false,
      "stateMutability": "nonpayable",
      "type": "function"
    },
    {
      "constant": false,
      "inputs": [],
      "name": "kill",
      "outputs": [],
      "payable": false,
      "stateMutability": "nonpayable",
      "type": "function"
    },
    {
      "constant": false,
      "inputs": [
        {
          "name": "password",
          "type": "string"
        }
      ],
      "name": "registerUser",
      "outputs": [],
      "payable": false,
      "stateMutability": "nonpayable",
      "type": "function"
    },
    {
      "constant": false,
      "inputs": [
        {
          "name": "info",
          "type": "string"
        },
        {
          "name": "productId",
          "type": "string"
        }
      ],
      "name": "verify",
      "outputs": [
        {
          "name": "",
          "type": "bool"
        }
      ],
      "payable": false,
      "stateMutability": "nonpayable",
      "type": "function"
    },
    {
      "constant": false,
      "inputs": [
        {
          "name": "itemId",
          "type": "string"
        }
      ],
      "name": "track",
      "outputs": [
        {
          "name": "ownerAddresses",
          "type": "bytes32[128]"
        },
        {
          "name": "count",
          "type": "uint256"
        }
      ],
      "payable": false,
      "stateMutability": "nonpayable",
      "type": "function"
    },
    {
      "constant": true,
      "inputs": [
        {
          "name": "password",
          "type": "string"
        }
      ],
      "name": "fetchOwnerHash",
      "outputs": [
        {
          "name": "",
          "type": "bytes32"
        }
      ],
      "payable": false,
      "stateMutability": "pure",
      "type": "function"
    },
    {
      "constant": false,
      "inputs": [
        {
          "name": "password",
          "type": "string"
        },
        {
          "name": "productId",
          "type": "string"
        }
      ],
      "name": "addProduct",
      "outputs": [],
      "payable": false,
      "stateMutability": "nonpayable",
      "type": "function"
    },
    {
      "constant": false,
      "inputs": [],
      "name": "mortal",
      "outputs": [],
      "payable": false,
      "stateMutability": "nonpayable",
      "type": "function"
    },
    {
      "anonymous": false,
      "inputs": [
        {
          "indexed": false,
          "name": "from",
          "type": "bytes32"
        },
        {
          "indexed": false,
          "name": "to",
          "type": "bytes32"
        },
        {
          "indexed": false,
          "name": "trackingId",
          "type": "bytes32"
        },
        {
          "indexed": false,
          "name": "previousTrackingId",
          "type": "bytes32"
        }
      ],
      "name": "transferCompleted",
      "type": "event"
    }
  ],
  "bytecode": "0x606060405260405180807f726f6f740000000000000000000000000000000000000000000000000000000081525060040190506040518091039020600190600019169055611580806100526000396000f3006060604052600436106100af576000357c0100000000000000000000000000000000000000000000000000000000900463ffffffff16806311dd8845146100b45780631a2973ed1461013c57806335b377971461016d5780633a3e00cc1461020957806341c0e1b5146102b6578063704f1b94146102cb5780639deb17f514610328578063b3f8675c146103e0578063bea333de14610480578063ca2efb55146104f9578063f1eae25c14610599575b600080fd5b34156100bf57600080fd5b61010f600480803590602001908201803590602001908080601f016020809104026020016040519081016040528093929190818152602001838380828437820191505050505050919050506105ae565b60405180836000191660001916815260200182600019166000191681526020019250505060405180910390f35b341561014757600080fd5b61014f61069d565b60405180826000191660001916815260200191505060405180910390f35b341561017857600080fd5b6101ef600480803560001916906020019091908035600019169060200190919080356000191690602001909190803590602001908201803590602001908080601f016020809104026020016040519081016040528093929190818152602001838380828437820191505050505050919050506106a7565b604051808215151515815260200191505060405180910390f35b341561021457600080fd5b6102b460048080356000191690602001909190803590602001908201803590602001908080601f0160208091040260200160405190810160405280939291908181526020018383808284378201915050505050509190803590602001908201803590602001908080601f016020809104026020016040519081016040528093929190818152602001838380828437820191505050505050919050506109f1565b005b34156102c157600080fd5b6102c9610a63565b005b34156102d657600080fd5b610326600480803590602001908201803590602001908080601f01602080910402602001604051908101604052809392919081815260200183838082843782019150505050505091905050610af4565b005b341561033357600080fd5b6103c6600480803590602001908201803590602001908080601f0160208091040260200160405190810160405280939291908181526020018383808284378201915050505050509190803590602001908201803590602001908080601f01602080910402602001604051908101604052809392919081815260200183838082843782019150505050505091905050610c8b565b604051808215151515815260200191505060405180910390f35b34156103eb57600080fd5b61043b600480803590602001908201803590602001908080601f01602080910402602001604051908101604052809392919081815260200183838082843782019150505050505091905050610db4565b6040518083608060200280838360005b8381101561046657808201518184015260208101905061044b565b505050509050018281526020019250505060405180910390f35b341561048b57600080fd5b6104db600480803590602001908201803590602001908080601f01602080910402602001604051908101604052809392919081815260200183838082843782019150505050505091905050610eb8565b60405180826000191660001916815260200191505060405180910390f35b341561050457600080fd5b610597600480803590602001908201803590602001908080601f0160208091040260200160405190810160405280939291908181526020018383808284378201915050505050509190803590602001908201803590602001908080601f01602080910402602001604051908101604052809392919081815260200183838082843782019150505050505091905050610f93565b005b34156105a457600080fd5b6105ac61125c565b005b60008060006105bb6114d5565b6003856040518082805190602001908083835b6020831015156105f357805182526020820191506020810190506020830392506105ce565b6001836020036101000a0380198251168184511680821785525050505050509050019150509081526020016040518091039020549150600260008360001916600019168152602001908152602001600020606060405190810160405290816000820154600019166000191681526020016001820154600019166000191681526020016002820154600019166000191681525050905080600001518160400151935093505050915091565b6000600554905090565b600080600060405180807f726f6f740000000000000000000000000000000000000000000000000000000081525060040190506040518091039020600019168660001916141515610764576106fb8661129e565b6040518082805190602001908083835b602083101515610730578051825260208201915060208101905060208303925061070b565b6001836020036101000a038019825116818451168082178552505050505050905001915050604051809103902091506107ca565b836040518082805190602001908083835b60208310151561079a5780518252602082019150602081019050602083039250610775565b6001836020036101000a038019825116818451168082178552505050505050905001915050604051809103902091505b6107d38261129e565b6040518082805190602001908083835b60208310151561080857805182526020820191506020810190506020830392506107e3565b6001836020036101000a038019825116818451168082178552505050505050905001915050604051809103902090506108408161148b565b1561084e57600092506109e7565b8460026000836000191660001916815260200190815260200160002060000181600019169055506004600086600019166000191681526020019081526020016000206001015460026000836000191660001916815260200190815260200160002060010181600019169055508160026000836000191660001916815260200190815260200160002060020181600019169055507f691309e6f6efb260160eba38a2d7b402bcf67dd5a3fa874392bb0c9429ae09a38786836002600086600019166000191681526020019081526020016000206002015460405180856000191660001916815260200184600019166000191681526020018360001916600019168152602001826000191660001916815260200194505050505060405180910390a1806003856040518082805190602001908083835b6020831015156109a75780518252602082019150602081019050602083039250610982565b6001836020036101000a03801982511681845116808217855250505050505090500191505090815260200160405180910390208160001916905550600192505b5050949350505050565b600060011515610a018484610c8b565b15151415610a5d57610a1161069d565b9050610a5b600260008360001916600019168152602001908152602001600020600001546002600084600019166000191681526020019081526020016000206002015486856106a7565b505b50505050565b6000809054906101000a900473ffffffffffffffffffffffffffffffffffffffff1673ffffffffffffffffffffffffffffffffffffffff163373ffffffffffffffffffffffffffffffffffffffff161415610af2576000809054906101000a900473ffffffffffffffffffffffffffffffffffffffff1673ffffffffffffffffffffffffffffffffffffffff16ff5b565b600080610b62836040518082805190602001908083835b602083101515610b305780518252602082019150602081019050602083039250610b0b565b6001836020036101000a038019825116818451168082178552505050505050905001915050604051809103902061129e565b6040518082805190602001908083835b602083101515610b975780518252602082019150602081019050602083039250610b72565b6001836020036101000a03801982511681845116808217855250505050505090500191505060405180910390209150826040518082805190602001908083835b602083101515610bfc5780518252602082019150602081019050602083039250610bd7565b6001836020036101000a0380198251168184511680821785525050505050509050019150506040518091039020905060408051908101604052808360001916815260200182600019168152506004600084600019166000191681526020019081526020016000206000820151816000019060001916905560208201518160010190600019169055905050505050565b60008060006003846040518082805190602001908083835b602083101515610cc85780518252602082019150602081019050602083039250610ca3565b6001836020036101000a0380198251168184511680821785525050505050509050019150509081526020016040518091039020546005816000191690555060026000600554600019166000191681526020019081526020016000209150846040518082805190602001908083835b602083101515610d5b5780518252602082019150602081019050602083039250610d36565b6001836020036101000a0380198251168184511680821785525050505050509050019150506040518091039020905081600101546000191681600019161415610da75760019250610dac565b600092505b505092915050565b610dbc611500565b60008060008060008094506003876040518082805190602001908083835b602083101515610dff5780518252602082019150602081019050602083039250610dda565b6001836020036101000a0380198251168184511680821785525050505050509050019150509081526020016040518091039020549250610e3d6114cb565b91505b81600019168360001916141515610ea65760026000846000191660001916815260200190815260200160002090508060020154925080600001548686806001019750608081101515610e8e57fe5b60200201906000191690816000191681525050610e40565b84806001900395505050505050915091565b600080610f26836040518082805190602001908083835b602083101515610ef45780518252602082019150602081019050602083039250610ecf565b6001836020036101000a038019825116818451168082178552505050505050905001915050604051809103902061129e565b6040518082805190602001908083835b602083101515610f5b5780518252602082019150602081019050602083039250610f36565b6001836020036101000a0380198251168184511680821785525050505050509050019150506040518091039020905080915050919050565b600080600080611004866040518082805190602001908083835b602083101515610fd25780518252602082019150602081019050602083039250610fad565b6001836020036101000a038019825116818451168082178552505050505050905001915050604051809103902061129e565b6040518082805190602001908083835b6020831015156110395780518252602082019150602081019050602083039250611014565b6001836020036101000a03801982511681845116808217855250505050505090500191505060405180910390209350856040518082805190602001908083835b60208310151561109e5780518252602082019150602081019050602083039250611079565b6001836020036101000a0380198251168184511680821785525050505050509050019150506040518091039020925060405180807f726f6f7400000000000000000000000000000000000000000000000000000000815250600401905060405180910390209150846040518082805190602001908083835b60208310151561113b5780518252602082019150602081019050602083039250611116565b6001836020036101000a0380198251168184511680821785525050505050509050019150506040518091039020905060606040519081016040528085600019168152602001846000191681526020018360001916815250600260008360001916600019168152602001908152602001600020600082015181600001906000191690556020820151816001019060001916905560408201518160020190600019169055905050806003866040518082805190602001908083835b60208310151561121957805182526020820191506020810190506020830392506111f4565b6001836020036101000a03801982511681845116808217855250505050505090500191505090815260200160405180910390208160001916905550505050505050565b336000806101000a81548173ffffffffffffffffffffffffffffffffffffffff021916908373ffffffffffffffffffffffffffffffffffffffff160217905550565b6112a661152c565b6112ae611540565b60008060006112bb611540565b60206040518059106112ca5750595b9080825280601f01601f1916602001820160405250945060009350600092505b60208310156113a8578260080260020a876001900402600102915060007f010000000000000000000000000000000000000000000000000000000000000002827effffffffffffffffffffffffffffffffffffffffffffffffffffffffffffff191614151561139b5781858581518110151561136257fe5b9060200101907effffffffffffffffffffffffffffffffffffffffffffffffffffffffffffff1916908160001a90535083806001019450505b82806001019350506112ea565b836040518059106113b65750595b9080825280601f01601f19166020018201604052509050600092505b8383101561147e5784838151811015156113e857fe5b9060200101517f010000000000000000000000000000000000000000000000000000000000000090047f010000000000000000000000000000000000000000000000000000000000000002818481518110151561144157fe5b9060200101907effffffffffffffffffffffffffffffffffffffffffffffffffffffffffffff1916908160001a90535082806001019350506113d2565b8095505050505050919050565b60008060026000846000191660001916815260200190815260200160002060000154600019161415156114c157600190506114c6565b600090505b919050565b6000600154905090565b6060604051908101604052806000801916815260200160008019168152602001600080191681525090565b611000604051908101604052806080905b60008019168152602001906001900390816115115790505090565b602060405190810160405280600081525090565b6020604051908101604052806000815250905600a165627a7a72305820dc17b4a6cb6c226ecddee5a7829403016bfc061d9f4186a95f56eae997e346b10029",
  "source": "pragma solidity ^0.4.4;\n\nimport \"./Basic.sol\";\nimport \"./Backtracking.sol\";\nimport \"./Encrypted.sol\";\nimport \"./Login.sol\";\nimport \"./Transfer.sol\";\nimport \"./TransferOwnership.sol\";\n\n\ncontract Main is Backtracking,Encrypted,Transfer {\n\n}\n",
  "sourcePath": "/home/thegodfather/XChain/Xchain/contracts/Main.sol",
  "compiler": {
    "name": "solc",
    "version": "0.4.18+commit.9cf6e910.Emscripten.clang"
  },
  "schemaVersion": "1.0.1",
  "updatedAt": "2017-12-26T06:01:44.970Z"
}