{
  "contractName": "Mortal",
  "abi": [
    {
      "constant": false,
      "inputs": [],
      "name": "kill",
      "outputs": [],
      "payable": false,
      "stateMutability": "nonpayable",
      "type": "function"
    },
    {
      "constant": false,
      "inputs": [],
      "name": "mortal",
      "outputs": [],
      "payable": false,
      "stateMutability": "nonpayable",
      "type": "function"
    }
  ],
  "bytecode": "0x6060604052341561000f57600080fd5b61017a8061001e6000396000f30060606040526004361061004c576000357c0100000000000000000000000000000000000000000000000000000000900463ffffffff16806341c0e1b514610051578063f1eae25c14610066575b600080fd5b341561005c57600080fd5b61006461007b565b005b341561007157600080fd5b61007961010c565b005b6000809054906101000a900473ffffffffffffffffffffffffffffffffffffffff1673ffffffffffffffffffffffffffffffffffffffff163373ffffffffffffffffffffffffffffffffffffffff16141561010a576000809054906101000a900473ffffffffffffffffffffffffffffffffffffffff1673ffffffffffffffffffffffffffffffffffffffff16ff5b565b336000806101000a81548173ffffffffffffffffffffffffffffffffffffffff021916908373ffffffffffffffffffffffffffffffffffffffff1602179055505600a165627a7a72305820b3906d2809f4472478c48b50af7d9aaae28de6a68e01dad2b878a1ab3f8a2bb20029",
  "source": "pragma solidity ^0.4.0;\n\ncontract Mortal{\n    address owner;\n\n    function mortal(){\n        owner=msg.sender;\n    }\n\n    modifier onlyOwner(){\n        if(msg.sender==owner)\n        {\n            _;\n        }\n    }\n\n    function kill() onlyOwner {\n        selfdestruct(owner);\n    }\n\n}\n",
  "sourcePath": "/home/thegodfather/XChain/Xchain/contracts/Mortal.sol",
  "compiler": {
    "name": "solc",
    "version": "0.4.18+commit.9cf6e910.Emscripten.clang"
  },
  "schemaVersion": "1.0.1",
  "updatedAt": "2017-12-26T06:01:54.233Z"
}