{
  "contractName": "Transfer",
  "abi": [
    {
      "constant": true,
      "inputs": [
        {
          "name": "productId",
          "type": "string"
        }
      ],
      "name": "getRecord",
      "outputs": [
        {
          "name": "",
          "type": "bytes32"
        },
        {
          "name": "",
          "type": "bytes32"
        }
      ],
      "payable": false,
      "stateMutability": "view",
      "type": "function"
    },
    {
      "constant": true,
      "inputs": [
        {
          "name": "productId",
          "type": "string"
        }
      ],
      "name": "getTrackingId",
      "outputs": [
        {
          "name": "",
          "type": "bytes32"
        }
      ],
      "payable": false,
      "stateMutability": "view",
      "type": "function"
    },
    {
      "constant": false,
      "inputs": [
        {
          "name": "owner",
          "type": "bytes32"
        },
        {
          "name": "previousTrackingId",
          "type": "bytes32"
        },
        {
          "name": "newOwner",
          "type": "bytes32"
        },
        {
          "name": "productId",
          "type": "string"
        }
      ],
      "name": "transferProof",
      "outputs": [
        {
          "name": "success",
          "type": "bool"
        }
      ],
      "payable": false,
      "stateMutability": "nonpayable",
      "type": "function"
    },
    {
      "constant": false,
      "inputs": [
        {
          "name": "newOwner",
          "type": "bytes32"
        },
        {
          "name": "info",
          "type": "string"
        },
        {
          "name": "productId",
          "type": "string"
        }
      ],
      "name": "transfer",
      "outputs": [
        {
          "name": "",
          "type": "bool"
        }
      ],
      "payable": false,
      "stateMutability": "nonpayable",
      "type": "function"
    },
    {
      "constant": false,
      "inputs": [],
      "name": "kill",
      "outputs": [],
      "payable": false,
      "stateMutability": "nonpayable",
      "type": "function"
    },
    {
      "constant": false,
      "inputs": [
        {
          "name": "password",
          "type": "string"
        }
      ],
      "name": "registerUser",
      "outputs": [],
      "payable": false,
      "stateMutability": "nonpayable",
      "type": "function"
    },
    {
      "constant": false,
      "inputs": [
        {
          "name": "info",
          "type": "string"
        },
        {
          "name": "productId",
          "type": "string"
        }
      ],
      "name": "verify",
      "outputs": [
        {
          "name": "",
          "type": "bool"
        }
      ],
      "payable": false,
      "stateMutability": "nonpayable",
      "type": "function"
    },
    {
      "constant": true,
      "inputs": [
        {
          "name": "password",
          "type": "string"
        }
      ],
      "name": "fetchOwnerHash",
      "outputs": [
        {
          "name": "",
          "type": "bytes32"
        }
      ],
      "payable": false,
      "stateMutability": "pure",
      "type": "function"
    },
    {
      "constant": false,
      "inputs": [
        {
          "name": "password",
          "type": "string"
        },
        {
          "name": "productId",
          "type": "string"
        }
      ],
      "name": "addProduct",
      "outputs": [
        {
          "name": "",
          "type": "bool"
        }
      ],
      "payable": false,
      "stateMutability": "nonpayable",
      "type": "function"
    },
    {
      "constant": false,
      "inputs": [],
      "name": "mortal",
      "outputs": [],
      "payable": false,
      "stateMutability": "nonpayable",
      "type": "function"
    },
    {
      "anonymous": false,
      "inputs": [
        {
          "indexed": false,
          "name": "from",
          "type": "bytes32"
        },
        {
          "indexed": false,
          "name": "to",
          "type": "bytes32"
        },
        {
          "indexed": false,
          "name": "trackingId",
          "type": "bytes32"
        },
        {
          "indexed": false,
          "name": "previousTrackingId",
          "type": "bytes32"
        }
      ],
      "name": "transferCompleted",
      "type": "event"
    },
    {
      "anonymous": false,
      "inputs": [
        {
          "indexed": false,
          "name": "info",
          "type": "string"
        },
        {
          "indexed": false,
          "name": "ownerHash",
          "type": "bytes32"
        },
        {
          "indexed": false,
          "name": "productId",
          "type": "string"
        }
      ],
      "name": "productAdded",
      "type": "event"
    }
  ],
  "bytecode": "0x606060405260405180807f726f6f7400000000000000000000000000000000000000000000000000000000815250600401905060405180910390206001906000191690556116f2806100526000396000f3006060604052600436106100a4576000357c0100000000000000000000000000000000000000000000000000000000900463ffffffff16806311dd8845146100a95780632eccd43a1461013157806335b37797146101aa5780633a3e00cc1461024657806341c0e1b51461030b578063704f1b94146103205780639deb17f51461037d578063bea333de14610435578063ca2efb55146104ae578063f1eae25c14610566575b600080fd5b34156100b457600080fd5b610104600480803590602001908201803590602001908080601f0160208091040260200160405190810160405280939291908181526020018383808284378201915050505050509190505061057b565b60405180836000191660001916815260200182600019166000191681526020019250505060405180910390f35b341561013c57600080fd5b61018c600480803590602001908201803590602001908080601f0160208091040260200160405190810160405280939291908181526020018383808284378201915050505050509190505061066a565b60405180826000191660001916815260200191505060405180910390f35b34156101b557600080fd5b61022c600480803560001916906020019091908035600019169060200190919080356000191690602001909190803590602001908201803590602001908080601f016020809104026020016040519081016040528093929190818152602001838380828437820191505050505050919050506106ec565b604051808215151515815260200191505060405180910390f35b341561025157600080fd5b6102f160048080356000191690602001909190803590602001908201803590602001908080601f0160208091040260200160405190810160405280939291908181526020018383808284378201915050505050509190803590602001908201803590602001908080601f01602080910402602001604051908101604052809392919081815260200183838082843782019150505050505091905050610a36565b604051808215151515815260200191505060405180910390f35b341561031657600080fd5b61031e610ae9565b005b341561032b57600080fd5b61037b600480803590602001908201803590602001908080601f01602080910402602001604051908101604052809392919081815260200183838082843782019150505050505091905050610b7a565b005b341561038857600080fd5b61041b600480803590602001908201803590602001908080601f0160208091040260200160405190810160405280939291908181526020018383808284378201915050505050509190803590602001908201803590602001908080601f01602080910402602001604051908101604052809392919081815260200183838082843782019150505050505091905050610d11565b604051808215151515815260200191505060405180910390f35b341561044057600080fd5b610490600480803590602001908201803590602001908080601f01602080910402602001604051908101604052809392919081815260200183838082843782019150505050505091905050610e3a565b60405180826000191660001916815260200191505060405180910390f35b34156104b957600080fd5b61054c600480803590602001908201803590602001908080601f0160208091040260200160405190810160405280939291908181526020018383808284378201915050505050509190803590602001908201803590602001908080601f01602080910402602001604051908101604052809392919081815260200183838082843782019150505050505091905050610f15565b604051808215151515815260200191505060405180910390f35b341561057157600080fd5b610579611372565b005b6000806000610588611673565b6003856040518082805190602001908083835b6020831015156105c0578051825260208201915060208101905060208303925061059b565b6001836020036101000a0380198251168184511680821785525050505050509050019150509081526020016040518091039020549150600260008360001916600019168152602001908152602001600020606060405190810160405290816000820154600019166000191681526020016001820154600019166000191681526020016002820154600019166000191681525050905080600001518160400151935093505050915091565b60006003826040518082805190602001908083835b6020831015156106a4578051825260208201915060208101905060208303925061067f565b6001836020036101000a038019825116818451168082178552505050505050905001915050908152602001604051809103902054600581600019169055506005549050919050565b600080600060405180807f726f6f7400000000000000000000000000000000000000000000000000000000815250600401905060405180910390206000191686600019161415156107a957610740866113b4565b6040518082805190602001908083835b6020831015156107755780518252602082019150602081019050602083039250610750565b6001836020036101000a0380198251168184511680821785525050505050509050019150506040518091039020915061080f565b836040518082805190602001908083835b6020831015156107df57805182526020820191506020810190506020830392506107ba565b6001836020036101000a038019825116818451168082178552505050505050905001915050604051809103902091505b610818826113b4565b6040518082805190602001908083835b60208310151561084d5780518252602082019150602081019050602083039250610828565b6001836020036101000a03801982511681845116808217855250505050505090500191505060405180910390209050610885816115a1565b156108935760009250610a2c565b8460026000836000191660001916815260200190815260200160002060000181600019169055506004600086600019166000191681526020019081526020016000206001015460026000836000191660001916815260200190815260200160002060010181600019169055508160026000836000191660001916815260200190815260200160002060020181600019169055507f691309e6f6efb260160eba38a2d7b402bcf67dd5a3fa874392bb0c9429ae09a38786836002600086600019166000191681526020019081526020016000206002015460405180856000191660001916815260200184600019166000191681526020018360001916600019168152602001826000191660001916815260200194505050505060405180910390a1806003856040518082805190602001908083835b6020831015156109ec57805182526020820191506020810190506020830392506109c7565b6001836020036101000a03801982511681845116808217855250505050505090500191505090815260200160405180910390208160001916905550600192505b5050949350505050565b60008060011515610a478585610d11565b15151415610ae057600060046000876000191660001916815260200190815260200160002060000154600019161415610a835760009150610ae1565b610a8c8361066a565b9050610ad6600260008360001916600019168152602001908152602001600020600001546002600084600019166000191681526020019081526020016000206002015487866106ec565b5060019150610ae1565b5b509392505050565b6000809054906101000a900473ffffffffffffffffffffffffffffffffffffffff1673ffffffffffffffffffffffffffffffffffffffff163373ffffffffffffffffffffffffffffffffffffffff161415610b78576000809054906101000a900473ffffffffffffffffffffffffffffffffffffffff1673ffffffffffffffffffffffffffffffffffffffff16ff5b565b600080610be8836040518082805190602001908083835b602083101515610bb65780518252602082019150602081019050602083039250610b91565b6001836020036101000a03801982511681845116808217855250505050505090500191505060405180910390206113b4565b6040518082805190602001908083835b602083101515610c1d5780518252602082019150602081019050602083039250610bf8565b6001836020036101000a03801982511681845116808217855250505050505090500191505060405180910390209150826040518082805190602001908083835b602083101515610c825780518252602082019150602081019050602083039250610c5d565b6001836020036101000a0380198251168184511680821785525050505050509050019150506040518091039020905060408051908101604052808360001916815260200182600019168152506004600084600019166000191681526020019081526020016000206000820151816000019060001916905560208201518160010190600019169055905050505050565b60008060006003846040518082805190602001908083835b602083101515610d4e5780518252602082019150602081019050602083039250610d29565b6001836020036101000a0380198251168184511680821785525050505050509050019150509081526020016040518091039020546005816000191690555060026000600554600019166000191681526020019081526020016000209150846040518082805190602001908083835b602083101515610de15780518252602082019150602081019050602083039250610dbc565b6001836020036101000a0380198251168184511680821785525050505050509050019150506040518091039020905081600101546000191681600019161415610e2d5760019250610e32565b600092505b505092915050565b600080610ea8836040518082805190602001908083835b602083101515610e765780518252602082019150602081019050602083039250610e51565b6001836020036101000a03801982511681845116808217855250505050505090500191505060405180910390206113b4565b6040518082805190602001908083835b602083101515610edd5780518252602082019150602081019050602083039250610eb8565b6001836020036101000a0380198251168184511680821785525050505050509050019150506040518091039020905080915050919050565b6000806000806000610f26866115e1565b15610f345760009450611368565b610f9f876040518082805190602001908083835b602083101515610f6d5780518252602082019150602081019050602083039250610f48565b6001836020036101000a03801982511681845116808217855250505050505090500191505060405180910390206113b4565b6040518082805190602001908083835b602083101515610fd45780518252602082019150602081019050602083039250610faf565b6001836020036101000a03801982511681845116808217855250505050505090500191505060405180910390209350866040518082805190602001908083835b6020831015156110395780518252602082019150602081019050602083039250611014565b6001836020036101000a0380198251168184511680821785525050505050509050019150506040518091039020925060405180807f726f6f7400000000000000000000000000000000000000000000000000000000815250600401905060405180910390209150856040518082805190602001908083835b6020831015156110d657805182526020820191506020810190506020830392506110b1565b6001836020036101000a038019825116818451168082178552505050505050905001915050604051809103902090506060604051908101604052808560001916815260200184600019168152602001836000191681525060026000836000191660001916815260200190815260200160002060008201518160000190600019169055602082015181600101906000191690556040820151816002019060001916905590505060408051908101604052808560001916815260200184600019168152506004600086600019166000191681526020019081526020016000206000820151816000019060001916905560208201518160010190600019169055905050806003876040518082805190602001908083835b60208310151561120f57805182526020820191506020810190506020830392506111ea565b6001836020036101000a038019825116818451168082178552505050505050905001915050908152602001604051809103902081600019169055507fd6921cecd4e3e8a01118186c55851034ccf594b110c12dac4fcb9a6246eee1178785886040518080602001846000191660001916815260200180602001838103835286818151815260200191508051906020019080838360005b838110156112c05780820151818401526020810190506112a5565b50505050905090810190601f1680156112ed5780820380516001836020036101000a031916815260200191505b50838103825284818151815260200191508051906020019080838360005b8381101561132657808201518184015260208101905061130b565b50505050905090810190601f1680156113535780820380516001836020036101000a031916815260200191505b509550505050505060405180910390a1600194505b5050505092915050565b336000806101000a81548173ffffffffffffffffffffffffffffffffffffffff021916908373ffffffffffffffffffffffffffffffffffffffff160217905550565b6113bc61169e565b6113c46116b2565b60008060006113d16116b2565b60206040518059106113e05750595b9080825280601f01601f1916602001820160405250945060009350600092505b60208310156114be578260080260020a876001900402600102915060007f010000000000000000000000000000000000000000000000000000000000000002827effffffffffffffffffffffffffffffffffffffffffffffffffffffffffffff19161415156114b15781858581518110151561147857fe5b9060200101907effffffffffffffffffffffffffffffffffffffffffffffffffffffffffffff1916908160001a90535083806001019450505b8280600101935050611400565b836040518059106114cc5750595b9080825280601f01601f19166020018201604052509050600092505b838310156115945784838151811015156114fe57fe5b9060200101517f010000000000000000000000000000000000000000000000000000000000000090047f010000000000000000000000000000000000000000000000000000000000000002818481518110151561155757fe5b9060200101907effffffffffffffffffffffffffffffffffffffffffffffffffffffffffffff1916908160001a90535082806001019350506114e8565b8095505050505050919050565b60008060026000846000191660001916815260200190815260200160002060000154600019161415156115d757600190506115dc565b600090505b919050565b6000806003836040518082805190602001908083835b60208310151561161c57805182526020820191506020810190506020830392506115f7565b6001836020036101000a0380198251168184511680821785525050505050509050019150509081526020016040518091039020549050600081600019161415611668576000915061166d565b600191505b50919050565b6060604051908101604052806000801916815260200160008019168152602001600080191681525090565b602060405190810160405280600081525090565b6020604051908101604052806000815250905600a165627a7a7230582089d3a39c2ac1dca85e30908872a528b7d7dba0628e8cf798c4b076cc8d2056060029",
  "source": "pragma solidity ^0.4.4;\n\nimport \"./Basic.sol\";\nimport \"./Login.sol\";\nimport \"./TransferOwnership.sol\";\n\ncontract Transfer is Basic,Login,TransferOwnership{\n\n  function transfer(bytes32 newOwner,string info,string productId) returns (bool){\n    if(verify(info, productId)==true){\n      if(register[newOwner].owner==\"\")\n      {\n        return false;\n      }\n      else {\n        bytes32 trackingId=getTrackingId(productId);\n        transferProof(proofs[trackingId].owner,proofs[trackingId].previousTrackingId, newOwner, productId);\n        return true;\n      }\n    }\n  }\n}\n",
  "sourcePath": "/home/thegodfather/XChain/Xchain/contracts/Transfer.sol",
  "compiler": {
    "name": "solc",
    "version": "0.4.18+commit.9cf6e910.Emscripten.clang"
  },
  "schemaVersion": "1.0.1",
  "updatedAt": "2017-12-26T10:16:28.331Z"
}