{
  "contractName": "Transfer",
  "abi": [
    {
      "constant": true,
      "inputs": [
        {
          "name": "productId",
          "type": "string"
        }
      ],
      "name": "getRecord",
      "outputs": [
        {
          "name": "",
          "type": "bytes32"
        },
        {
          "name": "",
          "type": "bytes32"
        }
      ],
      "payable": false,
      "stateMutability": "view",
      "type": "function"
    },
    {
      "constant": true,
      "inputs": [],
      "name": "getTrackingId",
      "outputs": [
        {
          "name": "",
          "type": "bytes32"
        }
      ],
      "payable": false,
      "stateMutability": "view",
      "type": "function"
    },
    {
      "constant": false,
      "inputs": [
        {
          "name": "owner",
          "type": "bytes32"
        },
        {
          "name": "previousTrackingId",
          "type": "bytes32"
        },
        {
          "name": "newOwner",
          "type": "bytes32"
        },
        {
          "name": "productId",
          "type": "string"
        }
      ],
      "name": "transferProof",
      "outputs": [
        {
          "name": "success",
          "type": "bool"
        }
      ],
      "payable": false,
      "stateMutability": "nonpayable",
      "type": "function"
    },
    {
      "constant": false,
      "inputs": [
        {
          "name": "newOwner",
          "type": "bytes32"
        },
        {
          "name": "info",
          "type": "string"
        },
        {
          "name": "productId",
          "type": "string"
        }
      ],
      "name": "transfer",
      "outputs": [],
      "payable": false,
      "stateMutability": "nonpayable",
      "type": "function"
    },
    {
      "constant": false,
      "inputs": [],
      "name": "kill",
      "outputs": [],
      "payable": false,
      "stateMutability": "nonpayable",
      "type": "function"
    },
    {
      "constant": false,
      "inputs": [
        {
          "name": "password",
          "type": "string"
        }
      ],
      "name": "registerUser",
      "outputs": [],
      "payable": false,
      "stateMutability": "nonpayable",
      "type": "function"
    },
    {
      "constant": false,
      "inputs": [
        {
          "name": "info",
          "type": "string"
        },
        {
          "name": "productId",
          "type": "string"
        }
      ],
      "name": "verify",
      "outputs": [
        {
          "name": "",
          "type": "bool"
        }
      ],
      "payable": false,
      "stateMutability": "nonpayable",
      "type": "function"
    },
    {
      "constant": true,
      "inputs": [
        {
          "name": "password",
          "type": "string"
        }
      ],
      "name": "fetchOwnerHash",
      "outputs": [
        {
          "name": "",
          "type": "bytes32"
        }
      ],
      "payable": false,
      "stateMutability": "pure",
      "type": "function"
    },
    {
      "constant": false,
      "inputs": [
        {
          "name": "password",
          "type": "string"
        },
        {
          "name": "productId",
          "type": "string"
        }
      ],
      "name": "addProduct",
      "outputs": [],
      "payable": false,
      "stateMutability": "nonpayable",
      "type": "function"
    },
    {
      "constant": false,
      "inputs": [],
      "name": "mortal",
      "outputs": [],
      "payable": false,
      "stateMutability": "nonpayable",
      "type": "function"
    },
    {
      "anonymous": false,
      "inputs": [
        {
          "indexed": false,
          "name": "from",
          "type": "bytes32"
        },
        {
          "indexed": false,
          "name": "to",
          "type": "bytes32"
        },
        {
          "indexed": false,
          "name": "trackingId",
          "type": "bytes32"
        },
        {
          "indexed": false,
          "name": "previousTrackingId",
          "type": "bytes32"
        }
      ],
      "name": "transferCompleted",
      "type": "event"
    }
  ],
  "bytecode": "0x606060405260405180807f726f6f74000000000000000000000000000000000000000000000000000000008152506004019050604051809103902060019060001916905561139b806100526000396000f3006060604052600436106100a4576000357c0100000000000000000000000000000000000000000000000000000000900463ffffffff16806311dd8845146100a95780631a2973ed1461013157806335b37797146101625780633a3e00cc146101fe57806341c0e1b5146102ab578063704f1b94146102c05780639deb17f51461031d578063bea333de146103d5578063ca2efb551461044e578063f1eae25c146104ee575b600080fd5b34156100b457600080fd5b610104600480803590602001908201803590602001908080601f01602080910402602001604051908101604052809392919081815260200183838082843782019150505050505091905050610503565b60405180836000191660001916815260200182600019166000191681526020019250505060405180910390f35b341561013c57600080fd5b6101446105f2565b60405180826000191660001916815260200191505060405180910390f35b341561016d57600080fd5b6101e4600480803560001916906020019091908035600019169060200190919080356000191690602001909190803590602001908201803590602001908080601f016020809104026020016040519081016040528093929190818152602001838380828437820191505050505050919050506105fc565b604051808215151515815260200191505060405180910390f35b341561020957600080fd5b6102a960048080356000191690602001909190803590602001908201803590602001908080601f0160208091040260200160405190810160405280939291908181526020018383808284378201915050505050509190803590602001908201803590602001908080601f01602080910402602001604051908101604052809392919081815260200183838082843782019150505050505091905050610946565b005b34156102b657600080fd5b6102be6109b8565b005b34156102cb57600080fd5b61031b600480803590602001908201803590602001908080601f01602080910402602001604051908101604052809392919081815260200183838082843782019150505050505091905050610a49565b005b341561032857600080fd5b6103bb600480803590602001908201803590602001908080601f0160208091040260200160405190810160405280939291908181526020018383808284378201915050505050509190803590602001908201803590602001908080601f01602080910402602001604051908101604052809392919081815260200183838082843782019150505050505091905050610be0565b604051808215151515815260200191505060405180910390f35b34156103e057600080fd5b610430600480803590602001908201803590602001908080601f01602080910402602001604051908101604052809392919081815260200183838082843782019150505050505091905050610d09565b60405180826000191660001916815260200191505060405180910390f35b341561045957600080fd5b6104ec600480803590602001908201803590602001908080601f0160208091040260200160405190810160405280939291908181526020018383808284378201915050505050509190803590602001908201803590602001908080601f01602080910402602001604051908101604052809392919081815260200183838082843782019150505050505091905050610de4565b005b34156104f957600080fd5b6105016110ad565b005b600080600061051061131c565b6003856040518082805190602001908083835b6020831015156105485780518252602082019150602081019050602083039250610523565b6001836020036101000a0380198251168184511680821785525050505050509050019150509081526020016040518091039020549150600260008360001916600019168152602001908152602001600020606060405190810160405290816000820154600019166000191681526020016001820154600019166000191681526020016002820154600019166000191681525050905080600001518160400151935093505050915091565b6000600554905090565b600080600060405180807f726f6f7400000000000000000000000000000000000000000000000000000000815250600401905060405180910390206000191686600019161415156106b957610650866110ef565b6040518082805190602001908083835b6020831015156106855780518252602082019150602081019050602083039250610660565b6001836020036101000a0380198251168184511680821785525050505050509050019150506040518091039020915061071f565b836040518082805190602001908083835b6020831015156106ef57805182526020820191506020810190506020830392506106ca565b6001836020036101000a038019825116818451168082178552505050505050905001915050604051809103902091505b610728826110ef565b6040518082805190602001908083835b60208310151561075d5780518252602082019150602081019050602083039250610738565b6001836020036101000a03801982511681845116808217855250505050505090500191505060405180910390209050610795816112dc565b156107a3576000925061093c565b8460026000836000191660001916815260200190815260200160002060000181600019169055506004600086600019166000191681526020019081526020016000206001015460026000836000191660001916815260200190815260200160002060010181600019169055508160026000836000191660001916815260200190815260200160002060020181600019169055507f691309e6f6efb260160eba38a2d7b402bcf67dd5a3fa874392bb0c9429ae09a38786836002600086600019166000191681526020019081526020016000206002015460405180856000191660001916815260200184600019166000191681526020018360001916600019168152602001826000191660001916815260200194505050505060405180910390a1806003856040518082805190602001908083835b6020831015156108fc57805182526020820191506020810190506020830392506108d7565b6001836020036101000a03801982511681845116808217855250505050505090500191505090815260200160405180910390208160001916905550600192505b5050949350505050565b6000600115156109568484610be0565b151514156109b2576109666105f2565b90506109b0600260008360001916600019168152602001908152602001600020600001546002600084600019166000191681526020019081526020016000206002015486856105fc565b505b50505050565b6000809054906101000a900473ffffffffffffffffffffffffffffffffffffffff1673ffffffffffffffffffffffffffffffffffffffff163373ffffffffffffffffffffffffffffffffffffffff161415610a47576000809054906101000a900473ffffffffffffffffffffffffffffffffffffffff1673ffffffffffffffffffffffffffffffffffffffff16ff5b565b600080610ab7836040518082805190602001908083835b602083101515610a855780518252602082019150602081019050602083039250610a60565b6001836020036101000a03801982511681845116808217855250505050505090500191505060405180910390206110ef565b6040518082805190602001908083835b602083101515610aec5780518252602082019150602081019050602083039250610ac7565b6001836020036101000a03801982511681845116808217855250505050505090500191505060405180910390209150826040518082805190602001908083835b602083101515610b515780518252602082019150602081019050602083039250610b2c565b6001836020036101000a0380198251168184511680821785525050505050509050019150506040518091039020905060408051908101604052808360001916815260200182600019168152506004600084600019166000191681526020019081526020016000206000820151816000019060001916905560208201518160010190600019169055905050505050565b60008060006003846040518082805190602001908083835b602083101515610c1d5780518252602082019150602081019050602083039250610bf8565b6001836020036101000a0380198251168184511680821785525050505050509050019150509081526020016040518091039020546005816000191690555060026000600554600019166000191681526020019081526020016000209150846040518082805190602001908083835b602083101515610cb05780518252602082019150602081019050602083039250610c8b565b6001836020036101000a0380198251168184511680821785525050505050509050019150506040518091039020905081600101546000191681600019161415610cfc5760019250610d01565b600092505b505092915050565b600080610d77836040518082805190602001908083835b602083101515610d455780518252602082019150602081019050602083039250610d20565b6001836020036101000a03801982511681845116808217855250505050505090500191505060405180910390206110ef565b6040518082805190602001908083835b602083101515610dac5780518252602082019150602081019050602083039250610d87565b6001836020036101000a0380198251168184511680821785525050505050509050019150506040518091039020905080915050919050565b600080600080610e55866040518082805190602001908083835b602083101515610e235780518252602082019150602081019050602083039250610dfe565b6001836020036101000a03801982511681845116808217855250505050505090500191505060405180910390206110ef565b6040518082805190602001908083835b602083101515610e8a5780518252602082019150602081019050602083039250610e65565b6001836020036101000a03801982511681845116808217855250505050505090500191505060405180910390209350856040518082805190602001908083835b602083101515610eef5780518252602082019150602081019050602083039250610eca565b6001836020036101000a0380198251168184511680821785525050505050509050019150506040518091039020925060405180807f726f6f7400000000000000000000000000000000000000000000000000000000815250600401905060405180910390209150846040518082805190602001908083835b602083101515610f8c5780518252602082019150602081019050602083039250610f67565b6001836020036101000a0380198251168184511680821785525050505050509050019150506040518091039020905060606040519081016040528085600019168152602001846000191681526020018360001916815250600260008360001916600019168152602001908152602001600020600082015181600001906000191690556020820151816001019060001916905560408201518160020190600019169055905050806003866040518082805190602001908083835b60208310151561106a5780518252602082019150602081019050602083039250611045565b6001836020036101000a03801982511681845116808217855250505050505090500191505090815260200160405180910390208160001916905550505050505050565b336000806101000a81548173ffffffffffffffffffffffffffffffffffffffff021916908373ffffffffffffffffffffffffffffffffffffffff160217905550565b6110f7611347565b6110ff61135b565b600080600061110c61135b565b602060405180591061111b5750595b9080825280601f01601f1916602001820160405250945060009350600092505b60208310156111f9578260080260020a876001900402600102915060007f010000000000000000000000000000000000000000000000000000000000000002827effffffffffffffffffffffffffffffffffffffffffffffffffffffffffffff19161415156111ec578185858151811015156111b357fe5b9060200101907effffffffffffffffffffffffffffffffffffffffffffffffffffffffffffff1916908160001a90535083806001019450505b828060010193505061113b565b836040518059106112075750595b9080825280601f01601f19166020018201604052509050600092505b838310156112cf57848381518110151561123957fe5b9060200101517f010000000000000000000000000000000000000000000000000000000000000090047f010000000000000000000000000000000000000000000000000000000000000002818481518110151561129257fe5b9060200101907effffffffffffffffffffffffffffffffffffffffffffffffffffffffffffff1916908160001a9053508280600101935050611223565b8095505050505050919050565b60008060026000846000191660001916815260200190815260200160002060000154600019161415156113125760019050611317565b600090505b919050565b6060604051908101604052806000801916815260200160008019168152602001600080191681525090565b602060405190810160405280600081525090565b6020604051908101604052806000815250905600a165627a7a723058201657ca171785e39b981c8bd8af5409b2d444deb2ace2c0f3321b15747595727d0029",
  "source": "pragma solidity ^0.4.4;\n\nimport \"./Basic.sol\";\nimport \"./Login.sol\";\nimport \"./TransferOwnership.sol\";\n\ncontract Transfer is Basic,Login,TransferOwnership{\n\n  function transfer(bytes32 newOwner,string info,string productId){\n    if(verify(info, productId)==true){\n    bytes32 trackingId=getTrackingId();\n    transferProof(proofs[trackingId].owner,proofs[trackingId].previousTrackingId, newOwner, productId);\n    }\n  }\n}\n",
  "sourcePath": "/home/thegodfather/XChain/Xchain/contracts/Transfer.sol",
  "compiler": {
    "name": "solc",
    "version": "0.4.18+commit.9cf6e910.Emscripten.clang"
  },
  "schemaVersion": "1.0.1",
  "updatedAt": "2017-12-26T06:01:44.973Z"
}