{
  "contractName": "TransferOwnership",
  "abi": [
    {
      "constant": true,
      "inputs": [
        {
          "name": "productId",
          "type": "string"
        }
      ],
      "name": "getRecord",
      "outputs": [
        {
          "name": "",
          "type": "bytes32"
        },
        {
          "name": "",
          "type": "bytes32"
        }
      ],
      "payable": false,
      "stateMutability": "view",
      "type": "function"
    },
    {
      "constant": false,
      "inputs": [
        {
          "name": "owner",
          "type": "bytes32"
        },
        {
          "name": "previousTrackingId",
          "type": "bytes32"
        },
        {
          "name": "newOwner",
          "type": "bytes32"
        },
        {
          "name": "productId",
          "type": "string"
        }
      ],
      "name": "transferProof",
      "outputs": [
        {
          "name": "success",
          "type": "bool"
        }
      ],
      "payable": false,
      "stateMutability": "nonpayable",
      "type": "function"
    },
    {
      "constant": false,
      "inputs": [],
      "name": "kill",
      "outputs": [],
      "payable": false,
      "stateMutability": "nonpayable",
      "type": "function"
    },
    {
      "constant": false,
      "inputs": [
        {
          "name": "password",
          "type": "string"
        }
      ],
      "name": "registerUser",
      "outputs": [],
      "payable": false,
      "stateMutability": "nonpayable",
      "type": "function"
    },
    {
      "constant": true,
      "inputs": [
        {
          "name": "password",
          "type": "string"
        }
      ],
      "name": "fetchOwnerHash",
      "outputs": [
        {
          "name": "",
          "type": "bytes32"
        }
      ],
      "payable": false,
      "stateMutability": "pure",
      "type": "function"
    },
    {
      "constant": false,
      "inputs": [
        {
          "name": "password",
          "type": "string"
        },
        {
          "name": "productId",
          "type": "string"
        }
      ],
      "name": "addProduct",
      "outputs": [],
      "payable": false,
      "stateMutability": "nonpayable",
      "type": "function"
    },
    {
      "constant": false,
      "inputs": [],
      "name": "mortal",
      "outputs": [],
      "payable": false,
      "stateMutability": "nonpayable",
      "type": "function"
    },
    {
      "anonymous": false,
      "inputs": [
        {
          "indexed": false,
          "name": "from",
          "type": "bytes32"
        },
        {
          "indexed": false,
          "name": "to",
          "type": "bytes32"
        },
        {
          "indexed": false,
          "name": "trackingId",
          "type": "bytes32"
        },
        {
          "indexed": false,
          "name": "previousTrackingId",
          "type": "bytes32"
        }
      ],
      "name": "transferCompleted",
      "type": "event"
    }
  ],
  "bytecode": "0x606060405260405180807f726f6f74000000000000000000000000000000000000000000000000000000008152506004019050604051809103902060019060001916905561103f806100526000396000f300606060405260043610610083576000357c0100000000000000000000000000000000000000000000000000000000900463ffffffff16806311dd88451461008857806335b377971461011057806341c0e1b5146101ac578063704f1b94146101c1578063bea333de1461021e578063ca2efb5514610297578063f1eae25c14610337575b600080fd5b341561009357600080fd5b6100e3600480803590602001908201803590602001908080601f0160208091040260200160405190810160405280939291908181526020018383808284378201915050505050509190505061034c565b60405180836000191660001916815260200182600019166000191681526020019250505060405180910390f35b341561011b57600080fd5b610192600480803560001916906020019091908035600019169060200190919080356000191690602001909190803590602001908201803590602001908080601f0160208091040260200160405190810160405280939291908181526020018383808284378201915050505050509190505061043b565b604051808215151515815260200191505060405180910390f35b34156101b757600080fd5b6101bf610785565b005b34156101cc57600080fd5b61021c600480803590602001908201803590602001908080601f01602080910402602001604051908101604052809392919081815260200183838082843782019150505050505091905050610816565b005b341561022957600080fd5b610279600480803590602001908201803590602001908080601f016020809104026020016040519081016040528093929190818152602001838380828437820191505050505050919050506109ad565b60405180826000191660001916815260200191505060405180910390f35b34156102a257600080fd5b610335600480803590602001908201803590602001908080601f0160208091040260200160405190810160405280939291908181526020018383808284378201915050505050509190803590602001908201803590602001908080601f01602080910402602001604051908101604052809392919081815260200183838082843782019150505050505091905050610a88565b005b341561034257600080fd5b61034a610d51565b005b6000806000610359610fc0565b6003856040518082805190602001908083835b602083101515610391578051825260208201915060208101905060208303925061036c565b6001836020036101000a0380198251168184511680821785525050505050509050019150509081526020016040518091039020549150600260008360001916600019168152602001908152602001600020606060405190810160405290816000820154600019166000191681526020016001820154600019166000191681526020016002820154600019166000191681525050905080600001518160400151935093505050915091565b600080600060405180807f726f6f7400000000000000000000000000000000000000000000000000000000815250600401905060405180910390206000191686600019161415156104f85761048f86610d93565b6040518082805190602001908083835b6020831015156104c4578051825260208201915060208101905060208303925061049f565b6001836020036101000a0380198251168184511680821785525050505050509050019150506040518091039020915061055e565b836040518082805190602001908083835b60208310151561052e5780518252602082019150602081019050602083039250610509565b6001836020036101000a038019825116818451168082178552505050505050905001915050604051809103902091505b61056782610d93565b6040518082805190602001908083835b60208310151561059c5780518252602082019150602081019050602083039250610577565b6001836020036101000a038019825116818451168082178552505050505050905001915050604051809103902090506105d481610f80565b156105e2576000925061077b565b8460026000836000191660001916815260200190815260200160002060000181600019169055506004600086600019166000191681526020019081526020016000206001015460026000836000191660001916815260200190815260200160002060010181600019169055508160026000836000191660001916815260200190815260200160002060020181600019169055507f691309e6f6efb260160eba38a2d7b402bcf67dd5a3fa874392bb0c9429ae09a38786836002600086600019166000191681526020019081526020016000206002015460405180856000191660001916815260200184600019166000191681526020018360001916600019168152602001826000191660001916815260200194505050505060405180910390a1806003856040518082805190602001908083835b60208310151561073b5780518252602082019150602081019050602083039250610716565b6001836020036101000a03801982511681845116808217855250505050505090500191505090815260200160405180910390208160001916905550600192505b5050949350505050565b6000809054906101000a900473ffffffffffffffffffffffffffffffffffffffff1673ffffffffffffffffffffffffffffffffffffffff163373ffffffffffffffffffffffffffffffffffffffff161415610814576000809054906101000a900473ffffffffffffffffffffffffffffffffffffffff1673ffffffffffffffffffffffffffffffffffffffff16ff5b565b600080610884836040518082805190602001908083835b602083101515610852578051825260208201915060208101905060208303925061082d565b6001836020036101000a0380198251168184511680821785525050505050509050019150506040518091039020610d93565b6040518082805190602001908083835b6020831015156108b95780518252602082019150602081019050602083039250610894565b6001836020036101000a03801982511681845116808217855250505050505090500191505060405180910390209150826040518082805190602001908083835b60208310151561091e57805182526020820191506020810190506020830392506108f9565b6001836020036101000a0380198251168184511680821785525050505050509050019150506040518091039020905060408051908101604052808360001916815260200182600019168152506004600084600019166000191681526020019081526020016000206000820151816000019060001916905560208201518160010190600019169055905050505050565b600080610a1b836040518082805190602001908083835b6020831015156109e957805182526020820191506020810190506020830392506109c4565b6001836020036101000a0380198251168184511680821785525050505050509050019150506040518091039020610d93565b6040518082805190602001908083835b602083101515610a505780518252602082019150602081019050602083039250610a2b565b6001836020036101000a0380198251168184511680821785525050505050509050019150506040518091039020905080915050919050565b600080600080610af9866040518082805190602001908083835b602083101515610ac75780518252602082019150602081019050602083039250610aa2565b6001836020036101000a0380198251168184511680821785525050505050509050019150506040518091039020610d93565b6040518082805190602001908083835b602083101515610b2e5780518252602082019150602081019050602083039250610b09565b6001836020036101000a03801982511681845116808217855250505050505090500191505060405180910390209350856040518082805190602001908083835b602083101515610b935780518252602082019150602081019050602083039250610b6e565b6001836020036101000a0380198251168184511680821785525050505050509050019150506040518091039020925060405180807f726f6f7400000000000000000000000000000000000000000000000000000000815250600401905060405180910390209150846040518082805190602001908083835b602083101515610c305780518252602082019150602081019050602083039250610c0b565b6001836020036101000a0380198251168184511680821785525050505050509050019150506040518091039020905060606040519081016040528085600019168152602001846000191681526020018360001916815250600260008360001916600019168152602001908152602001600020600082015181600001906000191690556020820151816001019060001916905560408201518160020190600019169055905050806003866040518082805190602001908083835b602083101515610d0e5780518252602082019150602081019050602083039250610ce9565b6001836020036101000a03801982511681845116808217855250505050505090500191505090815260200160405180910390208160001916905550505050505050565b336000806101000a81548173ffffffffffffffffffffffffffffffffffffffff021916908373ffffffffffffffffffffffffffffffffffffffff160217905550565b610d9b610feb565b610da3610fff565b6000806000610db0610fff565b6020604051805910610dbf5750595b9080825280601f01601f1916602001820160405250945060009350600092505b6020831015610e9d578260080260020a876001900402600102915060007f010000000000000000000000000000000000000000000000000000000000000002827effffffffffffffffffffffffffffffffffffffffffffffffffffffffffffff1916141515610e9057818585815181101515610e5757fe5b9060200101907effffffffffffffffffffffffffffffffffffffffffffffffffffffffffffff1916908160001a90535083806001019450505b8280600101935050610ddf565b83604051805910610eab5750595b9080825280601f01601f19166020018201604052509050600092505b83831015610f73578483815181101515610edd57fe5b9060200101517f010000000000000000000000000000000000000000000000000000000000000090047f0100000000000000000000000000000000000000000000000000000000000000028184815181101515610f3657fe5b9060200101907effffffffffffffffffffffffffffffffffffffffffffffffffffffffffffff1916908160001a9053508280600101935050610ec7565b8095505050505050919050565b6000806002600084600019166000191681526020019081526020016000206000015460001916141515610fb65760019050610fbb565b600090505b919050565b6060604051908101604052806000801916815260200160008019168152602001600080191681525090565b602060405190810160405280600081525090565b6020604051908101604052806000815250905600a165627a7a723058205710db331918902fdb22b8a65a129c43f736d44642540bdb9a5abcd66828d9960029",
  "source": "pragma solidity ^0.4.4;\n\nimport \"./Basic.sol\";\nimport \"./Encrypted.sol\";\n\n\ncontract TransferOwnership is Basic, Encrypted{\n\n  function transferProof(bytes32 owner, bytes32 previousTrackingId, bytes32 newOwner, string productId)public returns(bool success) {\n\n    bytes32 trackingId;\n\n    if (previousTrackingId != keccak256(\"root\")) {\n    trackingId=keccak256(bytes32ToString(previousTrackingId));\n    }\n    else\n    {\n    trackingId=keccak256(productId);\n    }\n\n    bytes32 newTrackingId=keccak256(bytes32ToString(trackingId));\n\n    if (hasProof(newTrackingId)) {\n    // already exists- return\n     return false;\n    }\n\n    proofs[newTrackingId].owner = newOwner;\n    proofs[newTrackingId].privateKey=register[newOwner].privateKey;\n    proofs[newTrackingId].previousTrackingId=trackingId;\n    transferCompleted(owner, newOwner, newTrackingId, proofs[newTrackingId].previousTrackingId);\n    items[productId]=newTrackingId;\n    return true;\n\n\n  }\n }\n",
  "sourcePath": "/home/thegodfather/XChain/Xchain/contracts/TransferOwnership.sol",
  "compiler": {
    "name": "solc",
    "version": "0.4.18+commit.9cf6e910.Emscripten.clang"
  },
  "schemaVersion": "1.0.1",
  "updatedAt": "2017-12-26T06:01:44.976Z"
}