{
  "contractName": "TransferOwnership",
  "abi": [
    {
      "constant": true,
      "inputs": [
        {
          "name": "productId",
          "type": "string"
        }
      ],
      "name": "getRecord",
      "outputs": [
        {
          "name": "",
          "type": "bytes32"
        },
        {
          "name": "",
          "type": "bytes32"
        }
      ],
      "payable": false,
      "stateMutability": "view",
      "type": "function"
    },
    {
      "constant": false,
      "inputs": [
        {
          "name": "owner",
          "type": "bytes32"
        },
        {
          "name": "previousTrackingId",
          "type": "bytes32"
        },
        {
          "name": "newOwner",
          "type": "bytes32"
        },
        {
          "name": "productId",
          "type": "string"
        }
      ],
      "name": "transferProof",
      "outputs": [
        {
          "name": "success",
          "type": "bool"
        }
      ],
      "payable": false,
      "stateMutability": "nonpayable",
      "type": "function"
    },
    {
      "constant": false,
      "inputs": [],
      "name": "kill",
      "outputs": [],
      "payable": false,
      "stateMutability": "nonpayable",
      "type": "function"
    },
    {
      "constant": false,
      "inputs": [
        {
          "name": "password",
          "type": "string"
        }
      ],
      "name": "registerUser",
      "outputs": [],
      "payable": false,
      "stateMutability": "nonpayable",
      "type": "function"
    },
    {
      "constant": true,
      "inputs": [
        {
          "name": "password",
          "type": "string"
        }
      ],
      "name": "fetchOwnerHash",
      "outputs": [
        {
          "name": "",
          "type": "bytes32"
        }
      ],
      "payable": false,
      "stateMutability": "pure",
      "type": "function"
    },
    {
      "constant": false,
      "inputs": [
        {
          "name": "password",
          "type": "string"
        },
        {
          "name": "productId",
          "type": "string"
        }
      ],
      "name": "addProduct",
      "outputs": [
        {
          "name": "",
          "type": "bool"
        }
      ],
      "payable": false,
      "stateMutability": "nonpayable",
      "type": "function"
    },
    {
      "constant": false,
      "inputs": [],
      "name": "mortal",
      "outputs": [],
      "payable": false,
      "stateMutability": "nonpayable",
      "type": "function"
    },
    {
      "anonymous": false,
      "inputs": [
        {
          "indexed": false,
          "name": "from",
          "type": "bytes32"
        },
        {
          "indexed": false,
          "name": "to",
          "type": "bytes32"
        },
        {
          "indexed": false,
          "name": "trackingId",
          "type": "bytes32"
        },
        {
          "indexed": false,
          "name": "previousTrackingId",
          "type": "bytes32"
        }
      ],
      "name": "transferCompleted",
      "type": "event"
    },
    {
      "anonymous": false,
      "inputs": [
        {
          "indexed": false,
          "name": "info",
          "type": "string"
        },
        {
          "indexed": false,
          "name": "ownerHash",
          "type": "bytes32"
        },
        {
          "indexed": false,
          "name": "productId",
          "type": "string"
        }
      ],
      "name": "productAdded",
      "type": "event"
    }
  ],
  "bytecode": "0x606060405260405180807f726f6f74000000000000000000000000000000000000000000000000000000008152506004019050604051809103902060019060001916905561127d806100526000396000f300606060405260043610610083576000357c0100000000000000000000000000000000000000000000000000000000900463ffffffff16806311dd88451461008857806335b377971461011057806341c0e1b5146101ac578063704f1b94146101c1578063bea333de1461021e578063ca2efb5514610297578063f1eae25c1461034f575b600080fd5b341561009357600080fd5b6100e3600480803590602001908201803590602001908080601f01602080910402602001604051908101604052809392919081815260200183838082843782019150505050505091905050610364565b60405180836000191660001916815260200182600019166000191681526020019250505060405180910390f35b341561011b57600080fd5b610192600480803560001916906020019091908035600019169060200190919080356000191690602001909190803590602001908201803590602001908080601f01602080910402602001604051908101604052809392919081815260200183838082843782019150505050505091905050610453565b604051808215151515815260200191505060405180910390f35b34156101b757600080fd5b6101bf61079d565b005b34156101cc57600080fd5b61021c600480803590602001908201803590602001908080601f0160208091040260200160405190810160405280939291908181526020018383808284378201915050505050509190505061082e565b005b341561022957600080fd5b610279600480803590602001908201803590602001908080601f016020809104026020016040519081016040528093929190818152602001838380828437820191505050505050919050506109c5565b60405180826000191660001916815260200191505060405180910390f35b34156102a257600080fd5b610335600480803590602001908201803590602001908080601f0160208091040260200160405190810160405280939291908181526020018383808284378201915050505050509190803590602001908201803590602001908080601f01602080910402602001604051908101604052809392919081815260200183838082843782019150505050505091905050610aa0565b604051808215151515815260200191505060405180910390f35b341561035a57600080fd5b610362610efd565b005b60008060006103716111fe565b6003856040518082805190602001908083835b6020831015156103a95780518252602082019150602081019050602083039250610384565b6001836020036101000a0380198251168184511680821785525050505050509050019150509081526020016040518091039020549150600260008360001916600019168152602001908152602001600020606060405190810160405290816000820154600019166000191681526020016001820154600019166000191681526020016002820154600019166000191681525050905080600001518160400151935093505050915091565b600080600060405180807f726f6f740000000000000000000000000000000000000000000000000000000081525060040190506040518091039020600019168660001916141515610510576104a786610f3f565b6040518082805190602001908083835b6020831015156104dc57805182526020820191506020810190506020830392506104b7565b6001836020036101000a03801982511681845116808217855250505050505090500191505060405180910390209150610576565b836040518082805190602001908083835b6020831015156105465780518252602082019150602081019050602083039250610521565b6001836020036101000a038019825116818451168082178552505050505050905001915050604051809103902091505b61057f82610f3f565b6040518082805190602001908083835b6020831015156105b4578051825260208201915060208101905060208303925061058f565b6001836020036101000a038019825116818451168082178552505050505050905001915050604051809103902090506105ec8161112c565b156105fa5760009250610793565b8460026000836000191660001916815260200190815260200160002060000181600019169055506004600086600019166000191681526020019081526020016000206001015460026000836000191660001916815260200190815260200160002060010181600019169055508160026000836000191660001916815260200190815260200160002060020181600019169055507f691309e6f6efb260160eba38a2d7b402bcf67dd5a3fa874392bb0c9429ae09a38786836002600086600019166000191681526020019081526020016000206002015460405180856000191660001916815260200184600019166000191681526020018360001916600019168152602001826000191660001916815260200194505050505060405180910390a1806003856040518082805190602001908083835b602083101515610753578051825260208201915060208101905060208303925061072e565b6001836020036101000a03801982511681845116808217855250505050505090500191505090815260200160405180910390208160001916905550600192505b5050949350505050565b6000809054906101000a900473ffffffffffffffffffffffffffffffffffffffff1673ffffffffffffffffffffffffffffffffffffffff163373ffffffffffffffffffffffffffffffffffffffff16141561082c576000809054906101000a900473ffffffffffffffffffffffffffffffffffffffff1673ffffffffffffffffffffffffffffffffffffffff16ff5b565b60008061089c836040518082805190602001908083835b60208310151561086a5780518252602082019150602081019050602083039250610845565b6001836020036101000a0380198251168184511680821785525050505050509050019150506040518091039020610f3f565b6040518082805190602001908083835b6020831015156108d157805182526020820191506020810190506020830392506108ac565b6001836020036101000a03801982511681845116808217855250505050505090500191505060405180910390209150826040518082805190602001908083835b6020831015156109365780518252602082019150602081019050602083039250610911565b6001836020036101000a0380198251168184511680821785525050505050509050019150506040518091039020905060408051908101604052808360001916815260200182600019168152506004600084600019166000191681526020019081526020016000206000820151816000019060001916905560208201518160010190600019169055905050505050565b600080610a33836040518082805190602001908083835b602083101515610a0157805182526020820191506020810190506020830392506109dc565b6001836020036101000a0380198251168184511680821785525050505050509050019150506040518091039020610f3f565b6040518082805190602001908083835b602083101515610a685780518252602082019150602081019050602083039250610a43565b6001836020036101000a0380198251168184511680821785525050505050509050019150506040518091039020905080915050919050565b6000806000806000610ab18661116c565b15610abf5760009450610ef3565b610b2a876040518082805190602001908083835b602083101515610af85780518252602082019150602081019050602083039250610ad3565b6001836020036101000a0380198251168184511680821785525050505050509050019150506040518091039020610f3f565b6040518082805190602001908083835b602083101515610b5f5780518252602082019150602081019050602083039250610b3a565b6001836020036101000a03801982511681845116808217855250505050505090500191505060405180910390209350866040518082805190602001908083835b602083101515610bc45780518252602082019150602081019050602083039250610b9f565b6001836020036101000a0380198251168184511680821785525050505050509050019150506040518091039020925060405180807f726f6f7400000000000000000000000000000000000000000000000000000000815250600401905060405180910390209150856040518082805190602001908083835b602083101515610c615780518252602082019150602081019050602083039250610c3c565b6001836020036101000a038019825116818451168082178552505050505050905001915050604051809103902090506060604051908101604052808560001916815260200184600019168152602001836000191681525060026000836000191660001916815260200190815260200160002060008201518160000190600019169055602082015181600101906000191690556040820151816002019060001916905590505060408051908101604052808560001916815260200184600019168152506004600086600019166000191681526020019081526020016000206000820151816000019060001916905560208201518160010190600019169055905050806003876040518082805190602001908083835b602083101515610d9a5780518252602082019150602081019050602083039250610d75565b6001836020036101000a038019825116818451168082178552505050505050905001915050908152602001604051809103902081600019169055507fd6921cecd4e3e8a01118186c55851034ccf594b110c12dac4fcb9a6246eee1178785886040518080602001846000191660001916815260200180602001838103835286818151815260200191508051906020019080838360005b83811015610e4b578082015181840152602081019050610e30565b50505050905090810190601f168015610e785780820380516001836020036101000a031916815260200191505b50838103825284818151815260200191508051906020019080838360005b83811015610eb1578082015181840152602081019050610e96565b50505050905090810190601f168015610ede5780820380516001836020036101000a031916815260200191505b509550505050505060405180910390a1600194505b5050505092915050565b336000806101000a81548173ffffffffffffffffffffffffffffffffffffffff021916908373ffffffffffffffffffffffffffffffffffffffff160217905550565b610f47611229565b610f4f61123d565b6000806000610f5c61123d565b6020604051805910610f6b5750595b9080825280601f01601f1916602001820160405250945060009350600092505b6020831015611049578260080260020a876001900402600102915060007f010000000000000000000000000000000000000000000000000000000000000002827effffffffffffffffffffffffffffffffffffffffffffffffffffffffffffff191614151561103c5781858581518110151561100357fe5b9060200101907effffffffffffffffffffffffffffffffffffffffffffffffffffffffffffff1916908160001a90535083806001019450505b8280600101935050610f8b565b836040518059106110575750595b9080825280601f01601f19166020018201604052509050600092505b8383101561111f57848381518110151561108957fe5b9060200101517f010000000000000000000000000000000000000000000000000000000000000090047f01000000000000000000000000000000000000000000000000000000000000000281848151811015156110e257fe5b9060200101907effffffffffffffffffffffffffffffffffffffffffffffffffffffffffffff1916908160001a9053508280600101935050611073565b8095505050505050919050565b60008060026000846000191660001916815260200190815260200160002060000154600019161415156111625760019050611167565b600090505b919050565b6000806003836040518082805190602001908083835b6020831015156111a75780518252602082019150602081019050602083039250611182565b6001836020036101000a03801982511681845116808217855250505050505090500191505090815260200160405180910390205490506000816000191614156111f357600091506111f8565b600191505b50919050565b6060604051908101604052806000801916815260200160008019168152602001600080191681525090565b602060405190810160405280600081525090565b6020604051908101604052806000815250905600a165627a7a7230582097cadd81722f3f207f95ea6a53b5e675ceee23dc9aec9eee341b31e91e6d186f0029",
  "source": "pragma solidity ^0.4.4;\n\nimport \"./Basic.sol\";\nimport \"./Encrypted.sol\";\n\n\ncontract TransferOwnership is Basic, Encrypted{\n\n  function transferProof(bytes32 owner, bytes32 previousTrackingId, bytes32 newOwner, string productId)public returns(bool success) {\n\n    bytes32 trackingId;\n\n    if (previousTrackingId != keccak256(\"root\")) {\n    trackingId=keccak256(bytes32ToString(previousTrackingId));\n    }\n    else\n    {\n    trackingId=keccak256(productId);\n    }\n\n    bytes32 newTrackingId=keccak256(bytes32ToString(trackingId));\n\n    if (hasProof(newTrackingId)) {\n    // already exists- return\n     return false;\n    }\n\n    proofs[newTrackingId].owner = newOwner;\n    proofs[newTrackingId].privateKey=register[newOwner].privateKey;\n    proofs[newTrackingId].previousTrackingId=trackingId;\n    transferCompleted(owner, newOwner, newTrackingId, proofs[newTrackingId].previousTrackingId);\n    items[productId]=newTrackingId;\n    return true;\n\n\n  }\n }\n",
  "sourcePath": "/home/thegodfather/XChain/Xchain/contracts/TransferOwnership.sol",
  "compiler": {
    "name": "solc",
    "version": "0.4.18+commit.9cf6e910.Emscripten.clang"
  },
  "schemaVersion": "1.0.1",
  "updatedAt": "2017-12-26T10:16:28.335Z"
}